:100000000C947F060C94A7060C94A7060C94C10EC2
:100010000C94C10E0C94C10E0C94980E0C94A7066F
:100020000C94A7060C94A7060C94A7060C94A7069C
:100030000C94A7060C94710E0C94A7060C94A706BA
:100040000C9428140C94A7060C943F0E0C94190ED3
:100050000C94A7060C94A7060C94A7060C94A7066C
:100060000C94A7060C94A70647534D204C4F5721DC
:100070000047534D2048494748212100436F6E6691
:1000800069677572616369C3B36E2063617267618A
:100090006461004361726167616E646F20636F6EBB
:1000A0006669677572616369C3B36E20706F722091
:1000B0007072696D6572612076657A2E2E2E000051
:1000C00000102120423063408450A560C670E78153
:1000D000089129A14AB16BC18CD1ADE1CEF1EF12EB
:1000E0003102103273225252B5429472F762D693A3
:1000F000398318B37BA35AD3BDC39CF3FFE3DE243B
:100100006234430420140164E674C744A45485A5F2
:100110006AB54B85289509E5EEF5CFC5ACD58D368A
:100120005326721611063076D766F6569546B4B742
:100130005BA77A97198738F7DFE7FED79DC7BC48DA
:10014000C458E5688678A70840186128023823C992
:10015000CCD9EDE98EF9AF89489969A90AB92B5A2A
:10016000F54AD47AB76A961A710A503A332A12DBE2
:10017000FDCBDCFBBFEB9E9B798B58BB3BAB1A6C7A
:10018000A67C874CE45CC52C223C030C601C41ED32
:10019000AEFD8FCDECDDCDAD2ABD0B8D689D497ECA
:1001A000976EB65ED54EF43E132E321E510E70FF82
:1001B0009FEFBEDFDDCFFCBF1BAF3A9F598F789119
:1001C0008881A9B1CAA1EBD10CC12DF14EE16F100C
:1001D0008000A130C220E350044025704660678350
:1001E000B99398A3FBB3DAC33DD31CE37FF35E025C
:1001F000B1129022F332D24235521462777256B560
:10020000EAA5CB95A88589F56EE54FD52CC50D34AB
:10021000E224C314A004817466644754244405A7EF
:10022000DBB7FA879997B8E75FF77EC71DD73C26FB
:10023000D336F2069116B06657767646155634D9FF
:100240004CC96DF90EE92F99C889E9B98AA9AB584B
:100250004448657806682718C008E1388228A3CB8F
:100260007DDB5CEB3FFB1E8BF99BD8ABBBBB9A4A9B
:10027000755A546A377A160AF11AD02AB33A92FD9F
:100280002EED0FDD6CCD4DBDAAAD8B9DE88DC97CEB
:10029000266C075C644C453CA22C831CE00CC1EF2F
:1002A0001FFF3ECF5DDF7CAF9BBFBA8FD99FF86E3B
:1002B000177E364E555E742E933EB20ED11EF00060
:1002C00000333166625553CCC4FFF5AAA6999789CD
:1002D000A9BA98EFCBDCFA456D765C230F103E038C
:1002E00073304265115620CFB7FC86A9D59AE48AAF
:1002F000DAB9EBECB8DF89461E752F207C134D066A
:10030000E635D7608453B5CA22F913AC409F718F8C
:100310004FBC7EE92DDA1C438B70BA25E916D8054F
:100320009536A463F750C6C951FA60AF339C028C6E
:100330003CBF0DEA5ED96F40F873C9269A15AB0D24
:10034000CC3EFD6BAE589FC108F239A76A945B841E
:1003500065B754E207D13648A17B902EC31DF20E3B
:10036000BF3D8E68DD5BECC27BF14AA419972887FC
:1003700016B427E174D2454BD278E32DB01E810B21
:100380002A381B6D485E79C7EEF4DFA18C92BD82DE
:1003900083B1B2E4E1D7D04E477D7628251B1408FF
:1003A000593B686E3B5D0AC49DF7ACA2FF91CE81BC
:1003B000F0B2C1E792D4A34D347E052B5618671BCB
:1003C0009828A97DFA4ECBD75CE46DB13E820F929E
:1003D00031A100F453C7625EF56DC438970BA618BF
:1003E000EB2BDA7E894DB8D42FE71EB24D817C917C
:1003F00042A273F720C4115D866EB73BE408D51D99
:100400007E2E4F7B1C482DD1BAE28BB7D884E9945D
:10041000D7A7E6F2B5C18458136B223E710D401E7A
:100420000D2D3C786F4B5ED2C9E1F8B4AB879A973B
:10043000A4A495F1C6C2F75B6068513D020E331665
:1004400054256570364307DA90E9A1BCF28FC39F4B
:10045000FDACCCF99FCAAE53396008355B066A150E
:1004600027261673454074D9E3EAD2BF818CB09C2D
:100470008EAFBFFAECC9DD504A637B3628051910F0
:10048000B2238376D045E1DC76EF47BA148925990B
:100490001BAA2AFF79CC4855DF66EE33BD008C13CA
:1004A000C120F075A34692DF05EC34B9678A569AED
:1004B00068A959FC0ACF3B56AC659D30CE03FF00BE
:1004C0000037306E605950DCC0EBF0B2A08590A9C7
:1004D000A19E91C7C1F0F1756142511B012C3143BE
:1004E0006374532D031A339FA3A893F1C3C6F3EA91
:1004F000C2DDF284A2B3923602013258626F528694
:10050000C6B1F6E8A6DF965A066D36346603562F56
:1005100067185741077637F3A7C4979DC7AAF7C551
:10052000A5F295ABC59CF519652E55770540356C40
:10053000045B3402643554B0C487F4DEA4E9941D2E
:10054000AD2A9D73CD44FDC16DF65DAF0D983DB4F0
:100550000C833CDA6CED5C68CC5FFC06AC319C5ED5
:10056000CE69FE30AE079E820EB53EEC6EDB5EF7C6
:100570006FC05F990FAE3F2BAF1C9F45CF72FF9BA3
:100580006BAC5BF50BC23B47AB709B29CB1EFB32C0
:10059000CA05FA5CAA6B9AEE0AD93A806AB75AD8A9
:1005A00008EF38B668815804C833F86AA85D9871B6
:1005B000A946991FC928F9AD699A59C309F4393B6D
:1005C0005A0C6A553A620AE79AD0AA89FABECA92C8
:1005D000FBA5CBFC9BCBAB4E3B790B205B176B7821
:1005E000394F0916592169A4F993C9CA99FDA9D1AE
:1005F00098E6A8BFF888C80D583A6863385408BD13
:100600009C8AACD3FCE4CC615C566C0F3C380C1477
:100610003D230D7A5D4D6DC8FDFFCDA69D91ADFECC
:10062000FFC9CF909FA7AF223F150F4C5F7B6F573D
:100630005E606E393E0E0E8B9EBCAEE5FED2CE26BF
:10064000F711C748977FA7FA37CD079457A3678F4D
:1006500056B866E136D606539664A63DF60AC665D8
:100660009452A40BF43CC4B9548E64D734E004CC47
:1006700035FB05A255956510F527C57E9549A5A0C2
:10068000319701CE51F9617CF14BC1129125A1093D
:10069000903EA067F050C0D550E260BB308C00E3C4
:1006A00052D4628D32BA023F9208A251F266C24A17
:1006B000F37DC3249313A39633A103F853CF6300B0
:1006C0000076B4ED689BDCCAF1BC452799512D85B5
:1006D000C3F37768AB1E1F4F323986A25AD4EE1B84
:1006E000A76D13F6CF807BD156A7E23C3E4A8A9E87
:1006F00064E8D0730C05B854952221B9FDCF493771
:100700004E41FADA26AC92FDBF8B0B10D76663B26E
:100710008DC4395FE52951787C0EC89514E3A02C6F
:10072000E95A5DC181B735E61890AC0B707DC4A95C
:100730002ADF9E444232F663DB156F8EB3F8076EF4
:100740009C182883F4F540A46DD2D949053FB1EB3C
:100750005F9DEB0637708321AE571ACCC6BA72750F
:100760003B038F9853EEE7BFCAC97E52A22416F00E
:10077000F8864C1D906B243A094CBDD761A1D55920
:10078000D22F66B4BAC20E9323E5977E4B08FFDCE6
:1007900011AAA5317947CD16E06054FB888D3C4203
:1007A0007534C1AF1DD9A98884FE3065EC1358C7D4
:1007B000B6B1022ADE5C6A0D477BF3E02F969BDD23
:1007C00038AB8C305046E417C9617DFAA18C1558BE
:1007D000FB2E4FB593C327920AE4BE7F6209D6C6AB
:1007E0009FB02B2BF75D430C6E7ADAE10697B2438C
:1007F0005C35E8AE34D88089ADFF1964C51271EA62
:10080000769CC2071E71AA20875633CDEFBB5B6F63
:10081000B5190182DDF469A544D3F0482C3E98F166
:10082000D187651CB96A0D3B204D94D648A0FC7455
:100830001202A6997AEFCEBEE3C857538B253FB379
:10084000A4C5105ECC287879550FE1943DE2893635
:100850006740D3DB0FADBBFC968A2211FE674AA826
:1008600003DEB7456B33DF62F214468F9AF92E2D03
:10087000C05B74C0A8B61CE73191850A597CED8431
:10088000EAF25E69821F364E1B38AFA373D5C701EB
:1008900029779DEC419AF5CBD8BD6C26B050049FCA
:1008A0004DE9F97225049155BC2308B8D4CE601ADD
:1008B0008E6C3AF7E68152D07FA6CB3D174BA30052
:1008C00023232323232323232323232323232323F8
:1008D00023232323232323232323232323232323E8
:1008E000232323232323232323232300205354417F
:1008F0005254202D007C00302E322E3130002D201D
:10090000547261636B696F20002323232323232305
:1009100023232323232323232323232323232323A7
:100920002323232323232323232323232323232397
:100930002323232300006275666665723A20004611
:1009400041494C20636865636B43726567004641AB
:10095000494C20636865636B4D6F64656D0054722C
:100960007920746F20706F7765726F6620616E6496
:1009700020636865636B20636F6E6E656374696F77
:100980006E206F66206D61737465722F736C617673
:1009900065206D6F64756C657300547261636B697B
:1009A0006F20437269746963616C204641494C2031
:1009B0002D2053494D3836382063616E27742073DB
:1009C00074617274002D2D2D2D2D2D2D2D2D2D2D7D
:1009D0002D2D2D2057414B455550202D2D2D2D2DA2
:1009E0002D2D2D2D2D2D2D2D2D00002C002D2D2DBF
:1009F0002D2D2D2D2D2D2D2D2D2D2D20534C4545BF
:100A000050204E4F57202D2D2D2D2D2D2D2D2D2DA0
:100A10002D2D2D2D0000000000240027002A0000AD
:100A200000000800020100000304070000000000AD
:100A3000000000456E7472616D6F7320656E204C0E
:100A40004F57204D4F44450000202D2056494E3A27
:100A50002000202D20564241543A2000565359532D
:100A60005F35763A2000504F5745524F4646210099
:100A70004578747261637420436F6D6D616E643A82
:100A800020004578747261637420436F6D6D616EF0
:100A90006420693A20004C697374656E696E672042
:100AA000666F722054435020636F6D6D616E647386
:100AB0002E2E2E00526573706F6E73652069732041
:100AC0006E6F74206120636F6D6D6E616E640043A4
:100AD0006F6D6D616E642050524F434553534544D2
:100AE0003A2000726573706F6E73653A200053454B
:100AF0004E44204F4B2121004552524F5220534526
:100B00004E4420444154412121006170706C79436E
:100B10006F6E663A2000736574436F6E663A20000C
:100B2000207C2076616C75653A2000207C207072F4
:100B30006F703A200073706C6974436F6D6D616EF5
:100B4000643A2000554E4B4E4F5720434F4D4D4178
:100B50004E443A20004641494C20475053205452BD
:100B6000414E534D4954212100436F6D6D616E64B8
:100B70003A2000456C205443502068612066616C27
:100B80006C61646F20656E206D756C7469706C6546
:100B900073206F636173696F6E6573202D204861E8
:100BA000726420526573657421004552524F522081
:100BB000544350204F50454E2100544350204F5035
:100BC000454E204F4B21004552524F522047505323
:100BD0002053455256494345212100475052532046
:100BE00053455256494345204F4B212100494D451D
:100BF000493A200048617264205265736574202D63
:100C0000204C6C616D616E646F20616C2070657248
:100C1000726F20677561726469616E00004D756363
:100C2000686F732066616C6C6F732C207265696EDF
:100C3000696369616E646F20656E20382073656337
:100C4000732C206F2070756C736120626F74C3B356
:100C50006E2072657365742E2E2E0073656E64535C
:100C6000657269616C4174206661696C6564002E0F
:100C70000053657269616C53696D203E2000627992
:100C80007465730046524545204D454D3A20003E5F
:100C90003E3E3E3E3E3E3E3E3E3E3E3E3E3E3E3E74
:100CA0003E3E3E3E3E3E3E3E3E3E3E3E3E3E3E3E64
:100CB0003E3E3E3E3E3E3E3E3E3E3E3E000000004C
:100CC0000023002600290000000000250028002B3A
:100CD00000040404040404040402020202020203E5
:100CE00003030303030102040810204080010204EF
:100CF00008102001020408102000BF1AA31A1124B2
:100D00001FBECFEFD8E0DEBFCDBF13E0A0E0B1E063
:100D1000E8E7F2E402C005900D92A632B107D9F7D8
:100D200025E0A6E2B3E001C01D92A73BB207E1F7C0
:100D300016E0CEE7D6E004C02197FE010E945A1CBF
:100D4000CD37D107C9F70E9472140C942F210C944F
:100D500000000E94FC1D0F931F93CF93DF93EC01C3
:100D60000E94040E8C0168E971E0CE010E94040E1D
:100D7000800F911FDF91CF911F910F9108958330C4
:100D800081F028F4813099F08230A1F00895873005
:100D9000A9F08830B9F08430D1F4809180008F7D43
:100DA00003C0809180008F7780938000089584B580
:100DB0008F7702C084B58F7D84BD08958091B00087
:100DC0008F7703C08091B0008F7D8093B00008952D
:100DD0008E3008F08E508770806480937C00809104
:100DE0007A00806480937A0080917A0086FDFCCF3F
:100DF000809178002091790090E0922B0895EF92F5
:100E0000FF920F931F93CF93DF93CDB7DEB7CE5CE6
:100E1000D1090FB6F894DEBF0FBECDBF8C0185E3BC
:100E20009BE00E942111B80184E895E00E94040E25
:100E300065E372E0C8010E94A51B009729F0BC0180
:100E4000CE0101960E94151E65E372E080E090E0FD
:100E50000E94A51B009729F0BC01CE0145960E9477
:100E6000151E8BE29BE00E942111BE016F5F7F4F38
:100E700084E895E00E94040E80E29BE00E9421112C
:100E8000BE016B5E7F4F84E895E00E94AB0667E38E
:100E900072E0CE0101960E940C1E892B31F4BE0136
:100EA0006B5E7F4F8FE090E00DC06BE372E0CE0190
:100EB00001960E940C1E892B41F4BE016B5E7F4F90
:100EC0008BE090E00E94C813DDC060E472E0CE01C8
:100ED00001960E940C1E892B31F4BE016B5E7F4F80
:100EE0008CE090E0EFCF65E472E0CE0101960E94C5
:100EF0000C1E892B09F0BAC086E19BE00E942111EB
:100F0000BE016B5E7F4F84E895E00E94AB068E01C8
:100F10000E5A1F4F8CE3F80111928A95E9F769E4A4
:100F200072E0CE0145960E94A51BF12C24E1E22E31
:100F3000009781F0BC01C801EF9C800D911D112428
:100F40000E94151E69E472E080E090E00E94A51BFB
:100F5000F394EECF7801FCE3EF0EF11C8AE09BE006
:100F60000E942111B80184E895E00E94AB06B80107
:100F7000CE0182579F4F0E94151E6BE472E0CE0196
:100F800082579F4F0E94A51B009709F45FC0BC01C8
:100F9000CE0180549F4F0E94151E6BE472E080E0EA
:100FA00090E00E94A51BBC01CE0186539F4F0E947A
:100FB000151E6DE472E0CE0180549F4F0E940C1EFE
:100FC000892B61F4CE0186539F4F0E94871B21E03D
:100FD000892B09F420E02093360338C062E572E0E3
:100FE000CE0180549F4F0E940C1E892B51F4CE01DC
:100FF00086539F4F0E94871B909339038093380339
:1010000025C067E572E0CE0180549F4F0E940C1E00
:10101000892B41F4CE0186539F4F0E94871B8093FA
:101020003A0314C06EE472E0CE0180549F4F0E94D8
:101030000C1E892B59F4CE0186539F4F0E94871BAB
:1010400021E0892B09F420E020933C030C5E1F4F24
:10105000E016F10609F082CF40E150E060E070E078
:1010600085E393E00E94E91B81E00CC084E49BE0EF
:101070000E942111BE016F5F7F4F84E895E00E94BE
:10108000AB0680E0C253DF4F0FB6F894DEBF0FBE51
:10109000CDBFDF91CF911F910F91FF90EF900895F9
:1010A000CF93DF93282F30E0F901E15EF54F849173
:1010B000F901EB51F34FD491F901EF52F34FC49181
:1010C000CC2391F081110E94BF06EC2FF0E0EE0FCF
:1010D000FF1FE354F34FA591B491EC91ED2381E010
:1010E00090E021F480E002C080E090E0DF91CF91B9
:1010F00008951F93CF93DF93282F30E0F901E15E2D
:10110000F54F8491F901EB51F34FD491F901EF526E
:10111000F34FC491CC23C1F0162F81110E94BF065A
:10112000EC2FF0E0EE0FFF1FE953F34FA591B491C0
:101130009FB7F894111104C08C91D095D82302C0A8
:10114000EC91DE2BDC939FBFDF91CF911F9108952F
:101150000F931F93CF93DF93CDB7DEB72F970FB6C3
:10116000F894DEBF0FBECDBF1F9281E08F938AE55A
:1011700092E09F938F938E010F5F1F4F1F930F93EA
:101180000E94451EC8010E9491121092690560E0FC
:1011900089E00E9479080F900F900F900F900F90A8
:1011A0000F902F960FB6F894DEBF0FBECDBFDF9124
:1011B000CF911F910F91089586E69AE00E943C110D
:1011C00060E089E00E94790860E084E00E9479088C
:1011D00084E690E00E944C1160E086E00E9479086D
:1011E00084E690E00C944C11CF92DF92EF92FF9244
:1011F0000F931F93CF93DF93CDB7DEB7E9970FB669
:10120000F894DEBF0FBECDBF80913503813009F069
:101210003FC087E0E0E2F2E0DE01D39601900D925C
:101220008A95E1F7CE01C3960E94911269E971E0B7
:101230008AE993E00E94A51B69E971E080E090E0F3
:101240000E94A51BBC01CE0101960E94151E69E6F5
:1012500072E0CE0101960E94A51B69E672E080E073
:1012600090E00E94A51B69E672E080E090E00E9499
:10127000A51B0E94871B9093500580934F051092E9
:101280005205109251051092540510925305A7C0B3
:10129000823009F0A4C084E10E94E806BC01990FE5
:1012A000880B990B0E94031D23E333E343E55BE3C3
:1012B0000E948F1D20E030E04AE754E40E948F1D19
:1012C0000E94D21C80E090E00E94011D20E633EBDA
:1012D00043EA5EE30E94601C0E94D21C6B017C0109
:1012E00070935405609353058CE59AE00E94211198
:1012F000B60180E090E04AE00E94551181E10E9431
:10130000E806BC01990F880B990B0E94031D23E38B
:1013100033E343E55BE30E948F1D20E030E04AE7C2
:1013200054E40E948F1D0E94D21C80E090E00E9435
:10133000011D20E633EB43EA5EE30E94601C0E943D
:10134000D21C8B01045611091093500500934F05D0
:1013500082E59AE00E942111B80180E090E04AE025
:101360000E94551180E10E94E806BC01990F880B8C
:10137000990B0E94031D23E333E343E55BE30E94E3
:101380008F1D20E030E04AE754E40E948F1D0E9448
:10139000D21C80E090E00E94011D23ED37EA4DEB66
:1013A0005CE30E94601C0E94D21C6B017C01709364
:1013B00052056093510589E49AE00E942111B6011B
:1013C00080E090E04AE00E94551168E971E084E80D
:1013D00095E00E94040E88E49AE00E943C1120915E
:1013E0003D0330913E032115310541F081E04091EC
:1013F0004F05509150054217530708F080E02091A7
:101400003F03309140032115310541F040915105D2
:10141000509152054217530708F481E0209141038F
:10142000309142032115310539F040915305509117
:1014300054054217530710F0813061F4109299035C
:1014400083E39AE00E943C1185E080933A030E9476
:10145000DC0806C080913A03853011F410923A03FB
:10146000E9960FB6F894DEBF0FBECDBFDF91CF91E6
:101470001F910F91FF90EF90DF90CF900895CF9341
:10148000DF9390E0FC01EB51F34F2491FC01EF520C
:10149000F34F8491882361F190E0880F991FFC013C
:1014A000EB5EF54FC591D491FC01E953F34FA59143
:1014B000B491611109C09FB7F89488812095822367
:1014C0008883EC912E230BC0623061F49FB7F894AF
:1014D0008881322F309583238883EC912E2B2C9397
:1014E0009FBF06C08FB7F894E8812E2B28838FBF4B
:1014F000DF91CF9108958F929F92AF92BF92CF923A
:10150000DF92EF92FF926B017C010E9403144B016A
:101510005C01C114D104E104F104F1F00E94031450
:10152000DC01CB0188199909AA09BB09883E9340BF
:10153000A105B10570F321E0C21AD108E108F10854
:1015400088EE880E83E0981EA11CB11CC114D10442
:10155000E104F10419F7DDCFFF90EF90DF90CF9019
:10156000BF90AF909F908F9008958F929F92AF926F
:10157000BF92DF92EF92FF920F931F93CF93DF936F
:10158000CDB7DEB7A8970FB6F894DEBF0FBECDBFBC
:10159000D0906905DD2009F4E4C08C01FC010190C4
:1015A0000020E9F73197E81BF90BFF93EF938BE6E7
:1015B00092E09F938F937E0185E1E80EF11CFF92EC
:1015C000EF920E94451EC7010E949112C8010E941D
:1015D000911269E772E08AE993E00E942B1E0F9056
:1015E0000F900F900F900F900F90892B09F4B2C0BD
:1015F0008EEE9AE00E943C1164E670E080E090E09C
:101600000E947B0A69E971E08AE993E00E94A51BC8
:1016100069E971E080E090E00E94A51B69E971E052
:1016200080E090E00E94A51B8C01BC01FE01319678
:101630007F01CF010E94151E8981833209F07DC090
:10164000F70101900020E9F73197EE19FF09EC0F3F
:10165000FD1F8081843209F070C065E372E0C7012C
:101660000E94A51BFF24F394892B09F4F12C65E358
:1016700072E080E090E00E94A51B892B09F45DC018
:10168000FF2009F45AC083EE9AE00E942111B801AC
:1016900084E895E00E94AB06F80101900020E9F78C
:1016A000E01BE25085E4A82E83E0B82E88248394C2
:1016B000912CEE2EF12C8E149F0424F5F8018181DB
:1016C00083528230B0F082E89AE00E942111F80142
:1016D000618184E895E00E94DF0C68E971E084E8AC
:1016E00095E00E94040EF5011182F8018181F50157
:1016F0008083FFEF8F1A9F0A0F5F1F4F8FEFA81A8B
:10170000B80AD9CF80E79AE00E94211165E473E01E
:1017100084E895E00E94AB0685E493E00E94FF0612
:10172000882379F08FEC9AE00E943C1165E473E025
:1017300084E895E00E94AB0604C084EB9AE00E9426
:101740003C1180913A03823061F486E99AE00E946C
:101750003C1107C01092690588EF9AE00E943C1185
:10176000D12C8D2DA8960FB6F894DEBF0FBECDBF3D
:10177000DF91CF911F910F91FF90EF90DF90BF907D
:10178000AF909F908F900895CF92DF92EF92FF924B
:101790000F931F93CF93DF936C017A018B01C0E00D
:1017A000D0E0CE15DF0581F0D8016D918D01D60115
:1017B000ED91FC910190F081E02DC6010995892BF6
:1017C00011F02196EECF7E01C701DF91CF911F91DD
:1017D0000F91FF90EF90DF90CF900895FC01538D13
:1017E000448D252F30E0842F90E0821B930B5417FB
:1017F00010F0CF96089501970895FC01918D828D88
:10180000981761F0828DDF01A80FB11D5D968C9154
:10181000928D9F5F9F77928F90E008958FEF9FEF5B
:101820000895FC01918D828D981731F0828DE80F1B
:10183000F11D858D90E008958FEF9FEF0895FC01D5
:10184000918D228D892F90E080589F4F821B9109A6
:101850008F779927089582E194E00E941F0C21E080
:10186000892B09F420E0822F0895FC01848DDF018B
:10187000A80FB11DA356BF4F2C91848D90E0019607
:101880008F739927848FA689B7892C93A089B189F2
:101890008C91837080648C93938D848D981306C093
:1018A0000288F389E02D80818F7D80830895EF92F7
:1018B000FF920F931F93CF93DF93EC0181E0888F0A
:1018C0009B8D8C8D981305C0E889F989808185FDF1
:1018D00026C0F62E0B8D10E00F5F1F4F0F731127E0
:1018E000E02E8C8DE8120CC00FB607FCFACFE88909
:1018F000F989808185FFF5CFCE010E94350CF1CFAB
:101900008B8DFE01E80FF11DE356FF4FF0829FB76C
:10191000F8940B8FEA89FB89808180620AC09FB7A7
:10192000F894EE89FF896083E889F9898081837062
:10193000806480839FBF81E090E0DF91CF911F9111
:101940000F91FF90EF900895CF93DF93EC01888D76
:101950008823C9F0EA89FB89808185FD05C0A889B3
:10196000B9898C9186FD0FC00FB607FCF5CF808139
:1019700085FFF2CFA889B9898C9185FFEDCFCE0183
:101980000E94350CE7CFDF91CF91089520912F036E
:10199000309130032817390771F490912D0380910D
:1019A0002E03981741F0E0912D03F0E0E75AFC4F29
:1019B000808190E008958FEF9FEF089508951F9321
:1019C000CF93DF93DC015C968D919C915D9700979E
:1019D00039F421E030E013963C932E9312973BC0EC
:1019E0005196ED91FC91529750962C915097322F31
:1019F00030951FB75E964C915E97742F727041FDC3
:101A00006095F8944081772311F0422B01C0432365
:101A10004083EC012197F1F748E0508160FF02C05C
:101A2000522B01C053235083EC012197F1F76695A7
:101A3000415099F78081772319F08323808302C076
:101A4000282B20831FBF5C968D919C915D970197F9
:101A5000F1F781E090E0DF91CF911F9108952091FF
:101A60002F03309130032817390771F480912E032A
:101A700020912D0390E0805C9F4F821B910960E4D0
:101A800070E00E94011C089580E090E0089520918C
:101A90002F033091300328173907B9F490912D03A3
:101AA00080912E03981789F0E0912D03F0E0E75A1A
:101AB000FC4F808120912D0330E02F5F3F4F2F732B
:101AC000332720932D0390E008958FEF9FEF089523
:101AD000089580E090E00895809155058F5F809390
:101AE0005505883710F40C9411110895EF92FF9268
:101AF0000F931F93CF93DF93CDB7DEB764970FB6E5
:101B0000F894DEBF0FBECDBF6AE971E08AE993E0C9
:101B10000E94151E82E194E00E941F0C892B09F49B
:101B20005EC0F12CE12C10E082E194E00E941F0CD9
:101B3000181619064CF582E194E00E94FD0B082F5F
:101B4000833229F4F1100EC0EE24E39418C08432DD
:101B500049F4E12FF0E0E559FA4F1082FF24F394A5
:101B6000E12C0DC0EE2059F0602F84E895E00E9432
:101B7000DF0CE12FF0E0E559FA4F00831F5F81E0B1
:101B800090E00E944C11D0CF89E69BE00E94211189
:101B90006BE675E084E895E00E94AB06FF20F9F063
:101BA0008BE695E00E94FF068823C9F08FE00E9433
:101BB00050089F938F9381E892E09F938F938E01BB
:101BC0000F5F1F4F1F930F930E94451EC8010E9475
:101BD000B50A0F900F900F900F900F900F90649692
:101BE0000FB6F894DEBF0FBECDBFDF91CF911F912E
:101BF0000F91FF90EF9008950C94760D0E942B0C9E
:101C000081110C94760D08956115710579F0FB0131
:101C100001900020E9F73197AF01461B570BDC011B
:101C2000ED91FC910280F381E02D099480E090E039
:101C300008951F920F920FB60F9211242F933F9386
:101C40004F935F936F937F938F939F93AF93BF93C4
:101C5000EF93FF9382E194E00E94350CFF91EF91A6
:101C6000BF91AF919F918F917F916F915F914F91B4
:101C70003F912F910F900FBE0F901F9018951F92BC
:101C80000F920FB60F9211242F938F939F93EF9380
:101C9000FF93E0912204F09123048081E0912804D5
:101CA000F091290482FD12C0908180912B048F5FF6
:101CB0008F7720912C04821751F0E0912B04F0E0F3
:101CC000EE5EFB4F958F80932B0401C08081FF91C6
:101CD000EF919F918F912F910F900FBE0F901F90BA
:101CE00018951F920F920FB60F9211242F933F93C6
:101CF0004F935F936F937F938F939F93AF93BF9314
:101D0000EF93FF93E0912A03F0912B030995FF9144
:101D1000EF91BF91AF919F918F917F916F915F9163
:101D20004F913F912F910F900FBE0F901F901895DC
:101D30001F920F920FB60F9211248F939F93809151
:101D4000310390913203181619068CF480913103F7
:101D50009091320301979093320380933103A895B9
:101D60009F918F910F900FBE0F901F90189514BEEA
:101D70008091600088618093600088E080936000BB
:101D8000FFCF1F920F920FB60F9211242F933F9304
:101D90004F935F936F937F938F939F93AF93BF9373
:101DA000EF93FF93E0912F03F0913003309709F404
:101DB00051C0968DA685B785858591FF04C09C91FD
:101DC000892329F447C09C91892309F043C0A38942
:101DD000B4899C918589809589238C93868997897C
:101DE0000197F1F7608D718DA685B785558538E02F
:101DF00020E0CB010197F1F7822F90E09595879530
:101E0000282F4C91452309F02068315091F7868D99
:101E100081FD209580912E0390E001968F73992784
:101E200030912D03381749F0A0912E03B0E0A75A46
:101E3000BC4F2C9380932E0303C0868D8160868FC8
:101E4000828D938D0197F1F7A389B4899C9185893F
:101E5000892B8C93FF91EF91BF91AF919F918F91BF
:101E60007F916F915F914F913F912F910F900FBE96
:101E70000F901F901895EF92FF920F931F93CF939F
:101E8000DF93CDB7DEB7C758D1090FB6F894DEBFE0
:101E90000FBECDBF2091830530E0409138035091B3
:101EA00039032417350720F490912C039111A6C112
:101EB000109283058823D9F08DE0E0E0F1E0DE01A7
:101EC000119601900D928A95E1F7FE013E9687E00A
:101ED000DF011D928A95E9F74AE050E068E872E078
:101EE000CE0101960E949811882309F489C180913E
:101EF000380390913903892B39F485E59BE00E94E2
:101F00003C1110923A037AC11092F2041092F1043B
:101F10000E94F4080E94D4128BE0E7ECF2E08E01FC
:101F20000F5F1F4FD80101900D928A95E1F7C8010C
:101F30000E94911269E971E08AE993E00E94A51B71
:101F400069E971E080E090E00E94A51B63E972E01E
:101F50000E94A51B63E972E080E090E00E94A51B4F
:101F600069E672E00E94A51B69E672E080E090E0FD
:101F70000E94A51B0E94871B9093F2048093F1049A
:101F800069E672E080E090E00E94A51BBC0183EF4F
:101F900094E00E94151E69E672E080E090E00E94E5
:101FA000A51BBC0187E095E00E94151E69E672E062
:101FB00080E090E00E94A51BBC0186E195E00E94B4
:101FC000151E69E672E080E090E00E94A51BBC014E
:101FD00085E295E00E94151E69E672E080E090E0DF
:101FE0000E94A51BBC018FE295E00E94151E69E6C8
:101FF00072E080E090E00E94A51BBC0186E395E0C2
:102000000E94151E69E672E080E090E00E94A51B28
:1020100069E672E080E090E00E94A51BBC018DE3C0
:1020200095E00E94151E69E672E080E090E00E9453
:10203000A51B69E672E080E090E00E94A51B69E6BE
:1020400072E080E090E00E94A51BBC0182E495E074
:102050000E94151E69E672E080E090E00E94A51BD8
:1020600069E672E080E090E00E94A51B20913A03AF
:102070008091F1049091F204223009F042C0892B42
:1020800099F48FE795E09F938F9388E992E09F936F
:102090008F931F930F930E94451E0F900F900F90E8
:1020A0000F900F900F9075C08FE795E09F938F93DF
:1020B00082E495E09F938F938DE395E09F938F93B8
:1020C00086E395E09F938F938FE295E09F938F93A4
:1020D00085E295E09F938F9386E195E09F938F93A0
:1020E00087E095E09F938F9383EF94E09F938F9386
:1020F00080EA92E09F938F931F930F930E94451E57
:1021000043C0892B89F48FE795E09F938F9386E5F1
:1021100095E09F938F9385E992E09F938F931F9310
:102120000F930E94451E30C08FE795E09F938F93D9
:1021300082E495E09F938F938DE395E09F938F9337
:1021400086E395E09F938F938FE295E09F938F9323
:1021500085E295E09F938F9386E195E09F938F931F
:1021600087E095E09F938F9383EF94E09F938F9305
:1021700086E595E09F938F938DE992E09F938F93EF
:102180001F930F930E94451E0FB6F894DEBF0FBE3B
:10219000CDBF809154058F93809153058F9380918B
:1021A00052058F93809151058F93809150058F93A5
:1021B00080914F058F938DEB92E09F938F937E01DB
:1021C000B9E7EB0EF11CFF92EF920E94451EB7019A
:1021D000C8010E94011E1092F2041092F104C8017D
:1021E0000E94B50A0FB6F894DEBF0FBECDBF88239C
:1021F00009F483CE91E090932C0305C080E003C0E6
:102200000E944B1374CEC957DF4F0FB6F894DEBF50
:102210000FBECDBFDF91CF911F910F91FF90EF9037
:102220000895259A2D9882E090E09093A5058093DB
:10223000A40581E090E09093A7058093A6052D9AD0
:1022400008950F931F93CF93DF938C01C0E0D0E0EC
:10225000F801EC0FFD1F6491662341F084E895E0DE
:102260000E94DF0C892B11F02196F2CFCE01DF9175
:10227000CF911F910F910895CF93DF930E94211169
:10228000EC0168E971E084E895E00E94040E8C0F8F
:102290009D1FDF91CF910895A895BC01990F880BE0
:1022A000990B0E947B0AA89508958F929F92AF92F6
:1022B000BF920F931F93CF93DF93CDB7DEB7A19754
:1022C0000FB6F894DEBF0FBECDBF19A2423008F49E
:1022D0004AE08E010F5D1F4F842E912CA12CB12C52
:1022E000A50194010E94151CE62FB901CA010150F5
:1022F0001109EA3014F4E05D01C0E95CD801EC9307
:10230000232B242B252B61F7B80184E895E00E944C
:10231000040EA1960FB6F894DEBF0FBECDBFDF91BD
:10232000CF911F910F91BF90AF909F908F90089584
:102330008F929F92AF92BF92CF92DF92EF92FF92D5
:102340000F931F93CF93DF9300D0CDB7DEB77C01FF
:102350008B016A0182E194E00E941F0C892B29F015
:1023600082E194E00E94FD0BF5CF88E7EAE9F3E013
:10237000DF011D928A95E9F78FE89CE00E943C11ED
:1023800084E89CE00E9421112091B3053091B405AE
:10239000CE0101962115310519F4875B954018C0CF
:1023A000AC01421B530BE091B505F091B60580E0FE
:1023B00090E0309759F09C012E5F3F4F80819181D2
:1023C000820F931F0280F381E02DF3CF840F951FBE
:1023D0009A83898389809A80092C000CAA08BB08FB
:1023E000B7FE0EC06DE284E895E00E94DF0C662720
:1023F0007727CB01681979098A099B094AE003C04C
:102400004AE0C501B4010E9455118EE79CE00E948C
:102410003C1181E79CE00E942111B70184E895E01E
:102420000E94AB06B70182E194E00E94AB0682E114
:1024300094E00E94A40CC6010E944C1195E6E92E7E
:10244000F12C82E194E00E941F0C892B09F58FE6A4
:102450009CE00E94211184E690E00E944C11B1E0C2
:10246000EB1AF10871F78BE59CE00E943C1180911A
:1024700099038F5F809399038B3008F43FC08DE1FF
:102480009CE00E943C1184EF9BE00E943C11FFCF36
:10249000109299038AE9C82E83E0D82EF601EA59F2
:1024A000F3407F0182E194E00E941F0C1816190688
:1024B00064F482E194E00E94FD0BD6018D936D01DE
:1024C00085E090E00E944C11E9CFF701E656FC4F01
:1024D00010826AE973E084E895E00E94AB068CE123
:1024E0009CE00E943C110115110551F0B8018AE9E8
:1024F00093E00E942B1E21E0892B19F420E001C0FB
:1025000021E0822F0F900F90DF91CF911F910F91BB
:10251000FF90EF90DF90CF90BF90AF909F908F9003
:10252000089540E050E060E070E00C949811CF9383
:10253000DF93CDB7DEB728970FB6F894DEBF0FBE96
:10254000CDBF88E0E2EDF2E0DE01119601900D9240
:102550008A95E1F7CE0101960E94911269E971E036
:102560008AE993E00E94A51B69E971E080E090E0B0
:102570000E94A51B4FE050E0BC0186E595E00E945B
:102580001C1E8DEE9BE00E94211166E575E084E83B
:1025900095E00E94AB0628960FB6F894DEBF0FBEFA
:1025A000CDBFDF91CF910895CF93DF93CDB7DEB745
:1025B0002A970FB6F894DEBF0FBECDBF87E0EAE6DC
:1025C000F1E0DE01119601900D928A95E1F7FE018E
:1025D000389683E0DF011D928A95E9F740E050E0EC
:1025E0006EE772E0CE0101960E949811882389F06F
:1025F00063E972E08AE993E00E94A51B69E672E054
:1026000080E090E00E94A51BBC018FE795E00E944E
:10261000151E2A960FB6F894DEBF0FBECDBFDF9110
:10262000CF9108951F93CF93DF93CDB7DEB72A974D
:102630000FB6F894DEBF0FBECDBF10916605112313
:10264000F9F08AE0EAEDF2E0DE01119601900D92D8
:102650008A95E1F7CE0101960E9491126EE772E031
:102660008AE993E00E942B1E892B29F08BED9BE0D9
:102670000E943C1105C087EC9BE00E943C1110E0D9
:10268000812F2A960FB6F894DEBF0FBECDBFDF9123
:10269000CF911F910895EF92FF921F93CF93DF93F5
:1026A000CDB7DEB7C456D1090FB6F894DEBF0FBE62
:1026B000CDBF109269050E941213182F882309F4C8
:1026C00059C084EE92E09F938F9389EE92E09F939E
:1026D0008F9386EF92E09F938F939E012F5F3F4FE2
:1026E00079013F932F930E94451EC7010E949112CA
:1026F00080ED97E00E944C1169E971E08AE993E06E
:102700000E94A51B69E971E080E090E00E94A51B92
:102710007C016EE772E00E942B1E0FB6F894DEBFBC
:102720000FBECDBF892B39F462E173E0C7010E946F
:102730002B1E892B51F01092A3058AEB9BE00E947F
:102740003C1181E08093690515C08AEA9BE00E94F4
:102750003C118091A3058F5F8093A305833049F4DA
:1027600083E79BE00E943C1184EF9BE00E943C11B8
:10277000FFCF10E0812FCC59DF4F0FB6F894DEBFAA
:102780000FBECDBFDF91CF911F91FF90EF900895C5
:102790000F931F93CF93DF938536910560F58B01DF
:1027A000EC0168E173E0C8010E940C1E892B11F452
:1027B00061E008C06BE173E0C8010E940C1E892B28
:1027C00029F460E08C2F0E94790817C06FE173E054
:1027D000C8010E940C1E892B11F461E008C063E25D
:1027E00073E0C8010E940C1E892B39F460E08C2F25
:1027F0000E943F0A02C080E001C081E0DF91CF91DA
:102800001F910F9108953FB7F8948091AD05909175
:10281000AE05A091AF05B091B00526B5A89B05C047
:102820002F3F19F00196A11DB11D3FBFBA2FA92F4F
:10283000982F8827820F911DA11DB11DBC01CD01CC
:1028400042E0660F771F881F991F4A95D1F70895B8
:102850001F920F920FB60F9211242F933F938F93D5
:102860009F93AF93BF938091A8059091A905A091E4
:10287000AA05B091AB053091AC0523E0230F2D37AD
:1028800020F40196A11DB11D05C026E8230F029674
:10289000A11DB11D2093AC058093A8059093A905B7
:1028A000A093AA05B093AB058091AD059091AE05BC
:1028B000A091AF05B091B0050196A11DB11D809307
:1028C000AD059093AE05A093AF05B093B005BF9151
:1028D000AF919F918F913F912F910F900FBE0F90CD
:1028E0001F901895CF93DF93CDB7DEB7C05CD109A9
:1028F0000FB6F894DEBF0FBECDBF789484B582606A
:1029000084BD84B5816084BD85B5826085BD85B593
:10291000816085BD80916E00816080936E00109211
:10292000810080918100826080938100809181008C
:10293000816080938100809180008160809380001D
:102940008091B10084608093B1008091B00081607B
:102950008093B00080917A00846080937A008091A7
:102960007A00826080937A0080917A0081608093FF
:102970007A0080917A00806880937A001092C1007A
:1029800014BE0FB6F894A89580916000886180937A
:102990006000109260000FBEF89414BE8091600039
:1029A00088618093600081E6809360007894109243
:1029B000800080E18093810084E0809328038FB7BA
:1029C00080932903F89482E19AE7909327038093F8
:1029D00026039093870080938600809129038FBF00
:1029E00080918100887F8093810090918100809107
:1029F0002803982B909381002CE63DE030932B0325
:102A000020932A0391E090936F0090918100892B8D
:102A1000809381003E0127E9620E711CEAE92E2EA7
:102A2000E1E03E2E8FB7F894C090A805D090A9059C
:102A3000E090AA05F090AB058FBFC0924705D092F9
:102A40004805E0924905F0924A051092550580919B
:102A50003A038230E1F580912C038823A1F1209183
:102A600043033091440380914B0590914C05A09114
:102A70004D05B0914E0546015701881A990AAA0AD8
:102A8000BB0AA8EEB3E00E94371C86169706A8067C
:102A9000B906C8F0C0924B05D0924C05E0924D05A6
:102AA000F0924E05809183058F5F8093830590E0BF
:102AB00020913803309139038217930720F48BE972
:102AC00091E00E94B50A80E00E943B0F25C581304D
:102AD00041F40E943B0F80916905882309F41CC5CD
:102AE000CBC48111CCC460E089E00E9479080E94C7
:102AF000111110929F0510929E0510929D05109243
:102B00009C0510929B0510929A056DE971E07093F7
:102B1000A1056093A00590919005963108F058C0EA
:102B20002DEB30E030939B0520939A052BE931E0A3
:102B300030939D0520939C052CE231E030939F0556
:102B400020939E0540916800983058F031E09E3007
:102B500008F430E021E0822F01C0880F3A95EAF7AF
:102B600001C084E0842B80936800983038F09E3058
:102B700040F0963148F020E030E008C02DE630E02B
:102B800005C02BE630E002C02CE630E0309398051B
:102B900020939705983030F481E001C0880F9A9512
:102BA000EAF70EC0292F30E09E3018F42850310982
:102BB00002C02E50310981E001C0880F2A95EAF742
:102BC000809399058091A0059091A1050197F1F757
:102BD00080919E0590919F05892B49F1E0912F03EB
:102BE000F091300375E0E438F70709F1309739F0D8
:102BF000A389B4899C918589809589238C93809140
:102C0000A2058E7F8093A20510922E0310922D03B1
:102C100084E895E09093300380932F03E09197052B
:102C2000F0919805908180919905892B8083E0919E
:102C30002204F091230402E00083E0911E04F0914D
:102C40001F041082E0912004F09121048FEC808316
:102C500010922A04E0912604F091270486E08083F4
:102C6000E0912404F0912504808180618083E091CB
:102C70002404F0912504808188608083E0912404FD
:102C8000F0912504808180688083E0912404F09194
:102C9000250480818F7D80831092550561E089E055
:102CA0000E943F0A61E089E00E94790861E085E0C6
:102CB0000E943F0A61E084E00E943F0A61E086E0F2
:102CC0000E943F0A60E087E00E943F0A61E088E0DE
:102CD0000E943F0A60E08EE00E943F0A61E08FE0C0
:102CE0000E943F0A61E08CE00E943F0A61E08BE0B5
:102CF0000E943F0A84E690E00E944C111F9281E0FE
:102D00008F931F921F921F921F929EE09F9392E4B7
:102D10009F931F920F931F929AE09F931F921F926F
:102D20001F921F921F9295E09F931F928F931F9265
:102D30008AE18F931F921F921F920F938DE991E06A
:102D40009F938F937F926F920E94451E0FB6F894C7
:102D5000DEBF0FBECDBF143689F0812F90E0F301A6
:102D6000E80FF91F2081222349F0E1E0F0E0EC0FA9
:102D7000FD1FE80FF91F20831F5FEDCFAE014F5FEE
:102D80005F4F8FEF9FEF28E230E0FA01BA016370E6
:102D90007727672B19F42901DA0116C021153105AF
:102DA00009F453C1A92FBB274F5F5F4FE081F0E0CB
:102DB000E827EE0FFF1FE154FF4F859194918A277A
:102DC0009B2721503109E1CF60E14616510408F4F8
:102DD00014C170E1471A51088D909D90AD90BC9040
:102DE000139788259925FC01FF27EE0FFF1FE1545B
:102DF000F94F65917491C154DF4F79836883CF5B3C
:102E0000D040E92FFF27EE0FFF1FE154FB4F6591E4
:102E10007491CA2CD12CE12CF12C8FEFD81AE80A2E
:102E2000F80AF601EE0FFF1FE154FF4F85919491D0
:102E30008B2C9924AA24BB24F401EE0FFF1FE1542C
:102E4000FF4FE590F49014968D909D90AD90BC90BE
:102E50001797C154DF4FE881F981CF5BD0406E27CF
:102E60007F276825792586279727E826F926F70101
:102E7000FF27EE0FFF1FE154F94F65917491C15484
:102E8000DF4F79836883CF5BD040EF2DFF27EE0FB4
:102E9000FF1FE154FB4F65917491CA2CD12CE12C9A
:102EA000F12C8FEFD81AE80AF80AF601EE0FFF1F8F
:102EB000E154FF4F859194918B2C9924AA24BB2433
:102EC000F401EE0FFF1FE154FF4FE590F4901896C8
:102ED0008D909D90AD90BC901B97C154DF4FE881C1
:102EE000F981CF5BD0406E277F276825792586271B
:102EF0009727E826F926F701FF27EE0FFF1FE15479
:102F0000F94F65917491C154DF4F79836883CF5B2A
:102F1000D040EF2DFF27EE0FFF1FE154FB4F6591CF
:102F20007491CA2CD12CE12CF12C8FEFD81AE80A1D
:102F3000F80AF601EE0FFF1FE154FF4F85919491BF
:102F40008B2C9924AA24BB24F401EE0FFF1FE1541B
:102F5000FF4FE590F4901C968D909D90AD90BC90A5
:102F60001F97C154DF4FE881F981CF5BD0406E27B6
:102F70007F2768257925862797278E259F25FC01A1
:102F8000FF27EE0FFF1FE154F94F65917491C15473
:102F9000DF4F79836883CF5BD040E92FFF27EE0FA7
:102FA000FF1FE154FB4F65917491CA2CD12CE12C89
:102FB000F12C8FEFD81AE80AF80AF601EE0FFF1F7E
:102FC000E154FF4F859194918B2C9924AA24BB2422
:102FD000F401EE0FFF1FE154FF4FC590D490C15490
:102FE000DF4FE881F981CF5BD0406E277F278627AE
:102FF00097278C259D255096E7CEB901E4E076957C
:103000006795EA95E1F7DB01F4E0AA0FBB1FFA959B
:10301000E1F7A40FB51F04E0660F771F0A95E1F7EB
:10302000261B370B2A0F3B1F2A173B0771F0492F2E
:103030005527ED91F0E0E827EE0FFF1FE154FF4F19
:103040008591949184279527EFCF9093F0048093F6
:10305000EF04A0E0B0E04427582F692F7A2F6627AD
:103060007727892F9A2FAB2FBB27842B952BA62B45
:10307000B72B909334038093330385E399E00E9448
:103080003C1189E099E00E943C118EEF98E00E948B
:10309000211187EF98E00E94211185EF98E00E94AE
:1030A0002111609133037091340380E090E04AE095
:1030B0000E9455118CEE98E00E943C1180EC98E043
:1030C0000E943C118FEB98E00E943C110E9411116C
:1030D00060E089E00E94790804E0015089F061E035
:1030E00089E00E94790888EC90E00E944C1160E031
:1030F00089E00E94790888EC90E00E944C11EDCFA5
:1031000040E150E060E070E085E393E00E94D91B6D
:10311000809137038A31A1F183E990E00E943C114C
:1031200082E080933503109236039AE1909337033F
:1031300025E030E0309339032093380310923A03AE
:1031400080933B0310923C038AE090E09093440309
:103150008093430382E49EE090933E0380933D037B
:103160001092400310923F031092420310924103C9
:1031700040E150E060E070E085E393E00E94E91BED
:103180008CE790E00E943C110E94DC0888EE93E0FE
:103190000E944C1161E084E00E94790805E087E01C
:1031A0000E945008F82E31E0831305C081E790E0BB
:1031B0000E943C1119C088E690E00E943C1161E039
:1031C00085E00E9479088CED95E00E944C1160E04A
:1031D00085E00E9479088CED95E00E944C11015029
:1031E000F1F6FF2009F49FC18DE0E6E0F2E0D301A3
:1031F00001900D928A95E1F740E050E06EE772E0B1
:10320000C3010E949811882309F48DC18CED95E0CB
:103210000E944C1161E086E00E94790888EE93E0FC
:103220000E944C118DE0E3E1F2E0DE011196019085
:103230000D928A95E1F7CE0101960E9491120E94AB
:10324000F4080E9497128EEF91E00E94911287E09D
:10325000E0E2F2E0DE01119601900D928A95E1F72D
:10326000CE0101960E94911280913A03853009F4B3
:1032700053C10E94971280913B038150823008F025
:10328000E5C01092680540E050E06EE772E088EB20
:1032900091E00E9498118823C1F081E08093680535
:1032A00084E690E00E944C1185E0E7E2F2E0DE0166
:1032B000119601900D928A95E1F7CE0101960E9438
:1032C000911284E690E00E944C1180916805811172
:1032D00003C08EE499E036C00E94D4128091680544
:1032E000882371F1109266058AE0E82EF12C89E0BE
:1032F000ECE2F2E0DE01119601900D928A95E1F781
:10330000CE0101960E9491126BEB71E08AE993E085
:103310000E942B1E892B41F46EEB71E08AE993E049
:103320000E942B1E892B21F081E0809366050CC042
:1033300088EE93E00E944C1161E0E61AF108B9F6BC
:103340008FE399E00E943C110E9412138823E9F157
:103350003F922F923F922F9281EC91E09F938F9317
:103360002FEC31E03F932F9381E090E08C0F9D1F75
:103370009F938F930E94451E44E650E060E070E00A
:10338000CE0101960E94981184EF91E00E944C11A9
:1033900044E650E060E070E086EE91E00E94981113
:1033A00084EF91E00E944C1144E650E060E070E050
:1033B0008FEE91E00E94981184EF91E00E944C11F1
:1033C0000FB6F894DEBF0FBECDBF0E944B138091A5
:1033D0003A03813011F402E001C001E066E575E0D6
:1033E000C3010E94151E1F920F937F926F9228EFC8
:1033F00031E03F932F9381E090E08C0F9D1F9F93CE
:103400008F930E94451E0FB6F894DEBF0FBECDBF4E
:1034100080916905882309F493C0CE0101960E942A
:10342000B50A882309F48CC086E399E00E94211133
:103430006AE973E084E895E00E94AB0680913B0363
:1034400080933A0361E089E00E94790880913B0310
:10345000823041F490916905992309F45DC080930D
:103460003A035AC0813009F057C0909169059923F9
:1034700009F452C080933A030E94A8084DC08530D9
:1034800009F043C00E94F40880913A03853009F0A6
:1034900043C08DEE99E00E943C1124E030E030936F
:1034A00032032093310383B7817F846083BF80918F
:1034B00064008160809364008091360381110E94D2
:1034C000DC088091310390913203181619067CF4C0
:1034D0008BEE99E00E94211183B7816083BF8895AC
:1034E00083B78E7F83BF83B78E7F83BFEACF8AEE99
:1034F00099E00E943C1185EC99E00E943C1180917A
:10350000640080718093640007C0843029F484EFE4
:103510009BE00E943C11FFCF81E090E00E944C11A3
:103520000E94FE0D7FCA8AE999E00E943C118EE557
:1035300099E00E943C1184EF9BE00E943C11FFCF78
:1035400010923A0383CF8AE891E0909385058093A7
:10355000840580912F03909130038458954071F435
:10356000E0919705F091980590818091990580955B
:10357000892380831092300310922F0308951092B4
:1035800015041092140488EE93E0A0E0B0E080935C
:10359000160490931704A0931804B093190428E715
:1035A00031E0309313042093120425EC30E0309383
:1035B0001F0420931E0424EC30E030932104209358
:1035C000200420EC30E0309323042093220421ECEB
:1035D00030E0309325042093240422EC30E0309333
:1035E00027042093260426EC30E03093290420930E
:1035F000280410922B0410922C0410922D04109287
:103600002E0410928705109286058093880590936A
:103610008905A0938A05B0938B058AE891E0909381
:1036200085058093840510929B0510929A0510924F
:103630009D0510929C0510929F0510929E05109278
:10364000A1051092A0056091A2056E7F6D7F609329
:10365000A2056695617081E0682782E10E94790881
:1036600061E082E10E943F0AE7EFFCE0E491E09331
:103670009405E3EEFCE0E491F0E0EE0FFF1FE95368
:10368000F34F85919491909396058093950560E012
:1036900083E10E943F0A8091A20581FD04C061E0A0
:1036A00083E10E94790883E180939005E8EFFCE0D4
:1036B000E491E0939105E4EEFCE0E491F0E0EE0F9C
:1036C000FF1FE354F34F859194919093930580935A
:1036D000920586E5E4E1F1E0A1EFB4E001900D92FE
:1036E0008A95E1F710924705109248051092490516
:1036F00010924A0510924B0510924C0510924D0500
:1037000010924E0510925505109283050895FC0104
:1037100088279927E89421912032E9F3293010F085
:103720002E30C8F32B3241F02D3239F4689404C0A6
:103730000E94D11B820F911D219120532A30C0F38A
:103740001EF4909581959F4F089541EB55E00E949E
:10375000AA1B0895FA01A191B081009719F410975E
:10376000E1F0CD01DC01CD010D90002011F4C0018C
:1037700013C0FB012191222319F02015D9F7F3CFB3
:10378000FB012191201519F41E92119606C02223E7
:10379000C1F70D900020A1F7D001FA01A193B083E9
:1037A00008957AE0979F902D879F802D910D112489
:1037B0000895DC01CB01FC01F999FECF06C0F2BDF2
:1037C000E1BDF89A319600B40D9241505040B8F7DF
:1037D0000895DC01CB0103C02D910E94F41B4150E0
:1037E0005040D0F70895262FF999FECF1FBA92BD09
:1037F00081BD20BD0FB6F894FA9AF99A0FBE0196D2
:10380000089597FB072E16F4009407D077FD09D092
:103810000E94461C07FC05D03EF4909581959F4F71
:103820000895709561957F4F0895A1E21A2EAA1B05
:10383000BB1BFD010DC0AA1FBB1FEE1FFF1FA21760
:10384000B307E407F50720F0A21BB30BE40BF50B5D
:10385000661F771F881F991F1A9469F760957095E6
:10386000809590959B01AC01BD01CF010895A29F69
:10387000B001B39FC001A39F700D811D1124911D44
:10388000B29F700D811D1124911D0895AA1BBB1BB1
:1038900051E107C0AA1FBB1FA617B70710F0A61B50
:1038A000B70B881F991F5A95A9F780959095BC0171
:1038B000CD010895EE0FFF1F0590F491E02D0994BE
:1038C0000E94741C0C94551D0E944E1D58F00E94BD
:1038D000471D40F029F45F3F29F00C943E1D511123
:1038E0000C94891D0C94441D0E94661D68F3992355
:1038F000B1F3552391F3951B550BBB27AA276217EC
:103900007307840738F09F5F5F4F220F331F441FF8
:10391000AA1FA9F335D00E2E3AF0E0E832D091502C
:103920005040E695001CCAF72BD0FE2F29D0660F19
:10393000771F881FBB1F261737074807AB07B0E85C
:1039400009F0BB0B802DBF01FF2793585F4F3AF062
:103950009E3F510578F00C943E1D0C94891D5F3FED
:10396000E4F3983ED4F3869577956795B795F795E8
:103970009F5FC9F7880F911D9695879597F90895D0
:10398000E1E0660F771F881FBB1F6217730784076C
:10399000BA0720F0621B730B840BBA0BEE1F88F77B
:1039A000E09508950E946E1D88F09F5798F0B92FFA
:1039B0009927B751B0F0E1F0660F771F881F991F64
:1039C0001AF0BA95C9F714C0B13091F00E94881D61
:1039D000B1E008950C94881D672F782F8827B85F71
:1039E00039F0B93FCCF3869577956795B395D9F7BC
:1039F0003EF490958095709561957F4F8F4F9F4FC6
:103A00000895E89409C097FB3EF4909580957095D1
:103A100061957F4F8F4F9F4F9923A9F0F92F96E91A
:103A2000BB279395F695879577956795B795F1118F
:103A3000F8CFFAF4BB0F11F460FF1BC06F5F7F4F2C
:103A40008F4F9F4F16C0882311F096E911C077233E
:103A500021F09EE8872F762F05C0662371F096E847
:103A6000862F70E060E02AF09A95660F771F881F16
:103A7000DAF7880F9695879597F9089597F99F67D4
:103A800080E870E060E008959FEF80EC08950024E6
:103A90000A941616170618060906089500240A94B3
:103AA00012161306140605060895092E0394000C39
:103AB00011F4882352F0BB0F40F4BF2B11F460FFC8
:103AC00004C06F5F7F4F8F4F9F4F089557FD9058F1
:103AD000440F551F59F05F3F71F04795880F97FBD2
:103AE000991F61F09F3F79F087950895121613068C
:103AF0001406551FF2CF4695F1DF08C016161706BB
:103B00001806991FF1CF86957105610508940895EF
:103B1000E894BB2766277727CB0197F908950E9481
:103B2000A21D0C94551D0E94471D38F00E944E1D89
:103B300020F0952311F00C943E1D0C94441D11248B
:103B40000C94891D0E94661D70F3959FC1F3950F1B
:103B500050E0551F629FF001729FBB27F00DB11D11
:103B6000639FAA27F00DB11DAA1F649F6627B00DA1
:103B7000A11D661F829F2227B00DA11D621F739F8A
:103B8000B00DA11D621F839FA00D611D221F749F98
:103B90003327A00D611D231F849F600D211D822FDF
:103BA000762F6A2F11249F5750409AF0F1F0882306
:103BB0004AF0EE0FFF1FBB1F661F771F881F915033
:103BC0005040A9F79E3F510580F00C943E1D0C9487
:103BD000891D5F3FE4F3983ED4F38695779567950A
:103BE000B795F795E7959F5FC1F7FE2B880F911D5D
:103BF0009695879597F9089581E090E0F8940C9454
:103C00002F21FB01DC010D900020E9F711970190B5
:103C10000D920020E1F70895FB01DC018D910190E8
:103C200080190110D9F3990B0895FB01DC01019073
:103C30000D920020E1F70895FB01DC014150504056
:103C400048F001900D920020C9F701C01D9241502B
:103C50005040E0F70895FB0151915523A9F0BF01B1
:103C6000DC014D9145174111E1F759F4CD01019067
:103C7000002049F04D9140154111C9F3FB0141115C
:103C8000EFCF81E090E001970895AEE0B0E0EBE483
:103C9000FEE10C9406210D891E8986E08C831A832F
:103CA00009838FEF9FE79E838D83AE01475E5F4F51
:103CB0006F89788DCE0101960E94671EEF81F8858D
:103CC000E00FF11F10822E96E4E00C942221ABE06D
:103CD000B0E0EDE6FEE10C94F8206C017B018A0176
:103CE000FC0117821682838181FFCCC1CE0101962F
:103CF0003C01F6019381F70193FD859193FF81913A
:103D00007F01882309F4BAC1853239F493FD859186
:103D100093FF81917F01853229F4B60190E00E94E2
:103D20005E20E7CF912C212C312CFFE1F315D8F048
:103D30008B3279F038F4803279F08332A1F4232D7C
:103D400020611DC08D3261F0803369F4232D216024
:103D500016C0832D8260382EE32DE4603E2E2AC0EB
:103D6000F32DF8601DC037FC2DC020ED280F2A3040
:103D700040F08E32B9F436FC81C1232D2064322EFE
:103D800019C036FE06C08AE0989E200D1124922E9E
:103D900011C0EAE02E9E200D1124222EF32DF06298
:103DA0003F2E08C08C3621F4832D8068382E02C047
:103DB000883641F4F70193FD859193FF81917F014E
:103DC0008111B3CF982F9F7D9554933028F40C5FC9
:103DD0001F4F9FE399830DC0833631F0833771F015
:103DE000833509F059C021C0F801808189830E5FB5
:103DF0001F4F88248394912C530113C02801F2E0B3
:103E00004F0E511CF801A080B18036FE03C0692D11
:103E100070E002C06FEF7FEFC5010E9453204C019C
:103E20008201F32DFF773F2E16C0280122E0420EBB
:103E3000511CF801A080B18036FE03C0692D70E0EE
:103E400002C06FEF7FEFC5010E9448204C01F32DA7
:103E5000F0683F2E820133FC1BC0822D90E0881653
:103E60009906B0F4B60180E290E00E945E202A94A8
:103E7000F4CFF50137FC859137FE81915F01B601E2
:103E800090E00E945E2021102A9421E0821A91087D
:103E90008114910471F7E8C0843611F0893641F538
:103EA000F80137FE07C060817181828193810C5FC8
:103EB0001F4F08C060817181072E000C880B990B81
:103EC0000E5F1F4FF32DFF763F2E97FF09C0909591
:103ED0008095709561957F4F8F4F9F4FF0683F2E73
:103EE0002AE030E0A3010E949A20882E861845C05F
:103EF000853731F4232D2F7EB22E2AE030E025C005
:103F0000932D997FB92E8F36C1F018F4883579F04A
:103F1000B5C0803719F0883721F0B0C0E92FE061D3
:103F2000BE2EB4FE0DC0FB2DF460BF2E09C034FEC2
:103F30000AC0292F2660B22E06C028E030E005C056
:103F400020E130E002C020E132E0F801B7FE07C016
:103F500060817181828193810C5F1F4F06C06081F7
:103F6000718180E090E00E5F1F4FA3010E949A20B4
:103F7000882E8618FB2DFF773F2E36FE0DC0232D91
:103F80002E7FA22E891458F434FE0BC032FC09C0D7
:103F9000832D8E7EA82E05C0B82CA32C03C0B82C70
:103FA00001C0B92CA4FE0FC0FE01E80DF11D8081F7
:103FB000803321F49A2D997EA92E09C0A2FE06C055
:103FC000B394B39404C08A2D867809F0B394A3FC0B
:103FD00011C0A0FE06C0B21488F4280C922C9B18C5
:103FE0000EC0B21460F4B60180E290E00E945E2040
:103FF000B394F7CFB21418F42B1802C0982C212CCC
:10400000A4FE10C0B60180E390E00E945E20A2FEF4
:1040100017C0A1FC03C088E790E002C088E590E0EB
:10402000B6010CC08A2D867859F0A1FE02C08BE241
:1040300001C080E2A7FC8DE2B60190E00E945E2004
:10404000891438F4B60180E390E00E945E209A94CF
:10405000F7CF8A94F301E80DF11D8081B60190E05D
:104060000E945E208110F5CF222009F442CEB601D5
:1040700080E290E00E945E202A94F6CFF6018681CD
:10408000978102C08FEF9FEF2B96E2E10C941421F1
:10409000FC010590615070400110D8F78095909513
:1040A0008E0F9F1F0895FC01615070400190011018
:1040B000D8F7809590958E0F9F1F08950F931F93AB
:1040C000CF93DF93FB01238121FD03C08FEF9FEF8F
:1040D0002CC022FF16C046815781248135814217AA
:1040E000530744F4A081B1819D012F5F3F4F31837D
:1040F00020838C93268137812F5F3F4F3783268320
:1041000014C08B01EC01FB010084F185E02D0995C1
:10411000892BE1F6D80116968D919C9117970196FF
:1041200017969C938E931697CE01DF91CF911F9196
:104130000F910895FA01AA27283051F1203181F119
:10414000E8946F936E7F6E5F7F4F8F4F9F4FAF4F9F
:10415000B1E03ED0B4E03CD0670F781F891F9A1FB2
:10416000A11D680F791F8A1F911DA11D6A0F711D66
:10417000811D911DA11D20D009F468943F912AE072
:10418000269F11243019305D3193DEF6CF0108955A
:10419000462F4770405D4193B3E00FD0C9F7F6CF8B
:1041A000462F4F70405D4A3318F0495D31FD405253
:1041B000419302D0A9F7EACFB4E0A69597958795E9
:1041C00077956795BA95C9F70097610571050895C8
:1041D0009B01AC010A2E0694579547953795279574
:1041E000BA95C9F7620F731F841F951FA01D08950C
:1041F0002F923F924F925F926F927F928F929F92F7
:10420000AF92BF92CF92DF92EF92FF920F931F93E4
:10421000CF93DF93CDB7DEB7CA1BDB0B0FB6F89495
:10422000DEBF0FBECDBF09942A88398848885F84D5
:104230006E847D848C849B84AA84B984C884DF8046
:10424000EE80FD800C811B81AA81B981CE0FD11D2A
:104250000FB6F894DEBF0FBECDBFED01089516E096
:10426000CEE7D6E004C0FE010E945A1C2196CF374B
:08427000D107C9F7F894FFCF54
:1042780041542B43495053544154555300000000B6
:104288000000000000000000000000000000000026
:104298000000000000000000000000000000000016
:1042A8000000000000000000000000000000000006
:1042B80000000000000000000000000000000000F6
:1042C80000000000000000000000000000000000E6
:1042D8000000000000000000000041542B4353512F
:1042E8000000000000000000570CC40BEE0BA40CEB
:1042F8001F0CFD0B110C00000000DF0CC40B690D36
:10430800DE0C2F0D470DC60C0D0A0025002575255E
:1043180075257525752575257525752575257525C5
:1043280075257525752575004154002C35002C31EF
:10433800006D326D2E6F72616E67652E6573004178
:10434800542B435354543D222573222C2225732287
:104358002C222573220041542B43494943520041E2
:10436800542B43494653520025737C25640041541D
:104378002B434349440041542B43474E5350575213
:104388003D310041542B434750535253543D300064
:1043980041542B43424300415445300041542B4380
:1043A8005245473F007C00494F36004D4F53490066
:1043B8004D49534F00434647003B003A0064736C35
:1043C800700067707369006F700041542B43495047
:1043D800434C4F53453D2569002C0041542B43491C
:1043E8005053454E443D25690053454E44204F4B9C
:1043F8000061636B7C256900434F4E4E4543542052
:104408004F4B00200025737C302C25730025737CCE
:10441800312C25732C25732C25732C25732C25738F
:104428002C25732C25732C25732C2573007C25755E
:104438002C25752C25750041542B43474E53494E66
:10444800460041542B4347534E0041542B434741A8
:1044580054543F00343434340034352E37362E3338
:10446800372E3231390041542B434950535441526D
:10447800543D22544350222C222573222C2225738A
:1044880022005245414459004F4E004F4646004FC6
:06449800555400494E00DE
:00000001FF
