:100000000C943E020C9466020C9466020C948207D7
:100010000C9482070C9482070C9459070C94660286
:100020000C9466020C9466020C9466020C946602B0
:100030000C9466020C9432070C9466020C946602CF
:100040000C941E0C0C9466020C9400070C94DA06B7
:100050000C9466020C9466020C9466020C94660280
:100060000C9466020C9466024641494C204750535A
:10007000205452414E534D495421210047534D20A5
:100080004C4F57210047534D2048494748212100F4
:10009000436F6E6669677572616369C3B36E20638F
:1000A000617267616461004361726167616E646F70
:1000B00020636F6E6669677572616369C3B36E2092
:1000C000706F72207072696D6572612076657A2E2C
:1000D0002E2E00436F6E666967757265204F4B0068
:1000E000205354415254202D00302E322E39002DF1
:1000F00020547261636B696F200062756666657279
:100100003A20004641494C20636865636B43726541
:1001100067004641494C20636865636B4D6F6465B9
:100120006D0054727920746F20706F7765726F66FE
:1001300020616E6420636865636B20636F6E6E651B
:100140006374696F6E206F66206D61737465722FC2
:10015000736C617665206D6F64756C6573005472A5
:1001600061636B696F20437269746963616C2046D7
:1001700041494C202D2053494D3836382063616E5B
:100180002774207374617274002D2D2D2D2D2D2D4B
:100190002D2D2D2D2D2D2D2057414B455550202DEA
:1001A0002D2D2D2D2D2D2D2D2D2D2D2D2D00002CDA
:1001B000002D2D2D2D2D2D2D2D2D2D2D2D2D2D20A9
:1001C000534C454550204E4F57202D2D2D2D2D2D74
:1001D0002D2D2D2D2D2D2D2D00000000002400276C
:1001E000002A0000000008000201000003040700CC
:1001F00000000000000000456E7472616D6F732096
:10020000656E204C4F57204D4F44450000504F57CE
:1002100045524F464621004578747261637420430D
:100220006F6D6D616E643A2000457874726163741D
:1002300020436F6D6D616E6420693A20004C6973D4
:1002400074656E696E6720666F7220544350206338
:100250006F6D6D616E64732E2E2E00526573706F1C
:100260006E7365206973206E6F74206120636F6DFB
:100270006D6E616E6400436F6D6D616E64205052EF
:100280004F4345535345443A2000726573706F6E77
:1002900073653A200053454E44204F4B21210045C1
:1002A00052524F522053454E442044415441212143
:1002B000006170706C79436F6E663A2000736574EC
:1002C000436F6E663A2000207C2076616C75653A3B
:1002D0002000207C2070726F703A200073706C696F
:1002E00074436F6D6D616E643A2000554E4B4E4FF6
:1002F0005720434F4D4D414E443A2000456C205409
:1003000043502068612066616C6C61646F20656E8B
:10031000206D756C7469706C6573206F63617369AF
:100320006F6E6573202D204861726420526573657D
:100330007421004552524F5220544350204F504593
:100340004E2100544350204F50454E204F4B21002A
:100350004552524F5220475053205345525649431D
:100360004521210047505253205345525649434599
:10037000204F4B212100494D45493A20003C3C3C4F
:100380003C3C3C3C3C3C3C3C3C3C3C3C3C3C3C3CAD
:100390003C3C3C3C3C3C3C3C3C3C3C3C3C3C3C3C9D
:1003A0003C3C3C3C3C3C3C3C3C3C3C004D7563682C
:1003B0006F732066616C6C6F732C207265696E6957
:1003C0006369616E646F20656E20382073656373A6
:1003D0002C206F2070756C736120626F74C3B36ED4
:1003E0002072657365742E2E2E0073656E645365DE
:1003F0007269616C4174206661696C6564002E00ED
:1004000053657269616C53696D203E20003E3E3E2B
:100410003E3E3E3E3E3E3E3E3E3E3E3E3E3E3E3EFC
:100420003E3E3E3E3E3E3E3E3E3E3E3E3E3E3E3EEC
:100430003E3E3E3E3E3E3E3E3E3E0000000000252B
:100440000028002B000000000023002600290004E3
:10045000040404040404040202020202020303036B
:100460000303030102040810204080010204081065
:1004700020010204081020005214481411241FBE49
:10048000CFEFD8E0DEBFCDBF13E0A0E0B1E0E2E700
:10049000F5E302C005900D92AE35B107D9F725E01E
:1004A000AEE5B3E001C01D92A63EB207E1F712E04F
:1004B000CDE3D2E004C02197FE010E946F15CC333A
:1004C000D107C9F70E94F60F0C94AC1A0C940000E7
:1004D000259A2D9880915F039091600320E030E091
:1004E000232B29F421E030E081E090E0F9CF9093D4
:1004F000600380935F0381E090E0909362038093B8
:1005000061032D9A0895CF92DF92EF92FF920F939D
:100510001F93CF93DF936C017A018B01C0E0D0E091
:10052000CE15DF0589F0D8016D918D01D601ED91D1
:10053000FC910190F081E02DC6010995892B11F401
:100540007E0102C02196ECCFC701DF91CF911F91B0
:100550000F91FF90EF90DF90CF900895FC01538DA5
:10056000448D252F30E0842F90E0821B930B54178D
:1005700010F0CF96089501970895FC01918D828D1A
:10058000981761F0828DDF01A80FB11D5D968C91E7
:10059000928D9F5F9F77928F90E008958FEF9FEFEE
:1005A0000895FC01918D828D981731F0828DE80FAE
:1005B000F11D858D90E008958FEF9FEF0895FC0168
:1005C000918D228D892F90E080589F4F821B910939
:1005D0008F779927089585E594E00E94DF0221E056
:1005E000892B09F420E0822F0895FC01848DDF011E
:1005F000A80FB11DA356BF4F2C91848D90E001969A
:100600008F739927848FA689B7892C93A089B18984
:100610008C9180648C93938D848D981306C002888E
:10062000F389E02D80818F7D80830895EF92FF9282
:100630000F931F93CF93DF93EC0181E0888F9B8D05
:100640008C8D981305C0E889F989808185FD24C0C7
:10065000F62E0B8D10E00F5F1F4F0F731127E02E4A
:100660008C8DE8120CC00FB607FCFACFE889F98927
:10067000808185FFF5CFCE010E94F502F1CF8B8DF1
:10068000FE01E80FF11DE356FF4FF0820B8FEA8960
:10069000FB898081806207C0EE89FF896083E889D9
:1006A000F98980818064808381E090E0DF91CF913F
:1006B0001F910F91FF90EF900895CF93DF93EC017E
:1006C000888D8823C9F0EA89FB89808185FD05C072
:1006D000A889B9898C9186FD0FC00FB607FCF5CFAC
:1006E000808185FFF2CFA889B9898C9185FFEDCFF4
:1006F000CE010E94F502E7CFDF91CF9108952091BE
:10070000AB033091AC032817390771F49091A9031A
:100710008091AA03981741F0E091A903F0E0ED5908
:10072000FC4F808190E008958FEF9FEF089508952A
:100730001F93CF93DF93DC015C962D913C915D97E5
:100740002115310539F481E090E013969C938E9346
:1007500012973DC05196ED91FC91529750969C9105
:100760005097892F80951FB75E964C915E9741FBFD
:10077000772770F941FD6095F8944081772311F057
:10078000492B01C048234083E9012197F1F748E054
:10079000508160FF02C0592B01C058235083E901EA
:1007A0002197F1F76695415099F7772321F09081D1
:1007B0008923808303C08081982B90831FBF5C9620
:1007C0008D919C915D970197F1F721E030E0C9018F
:1007D000DF91CF911F9108952091AB033091AC032D
:1007E0002817390771F48091AA032091A90390E09A
:1007F000805C9F4F821B910960E470E00E94161597
:10080000089580E090E008952091AB033091AC030F
:1008100028173907B9F49091A9038091AA03981772
:1008200089F0E091A903F0E0ED59FC4F808120911F
:10083000A90330E02F5F3F4F2F7333272093A90385
:1008400090E008958FEF9FEF0895E091AB03F09152
:10085000AC03E817F90769F4A389B4899C918589E9
:10086000809589238C931092AC031092AB0381E0A6
:10087000089580E00895089580E090E008950E9432
:100880001117EF92FF920F931F93CF93DF93CDB782
:10089000DEB7C758D1090FB6F894DEBF0FBECDBF83
:1008A0002091C30530E04091CF035091D00324172D
:1008B000350720F490915E039111A6C11092C305F3
:1008C0008823D9F08DE0E0E0F1E0DE01119601909F
:1008D0000D928A95E1F7FE013E9687E0DF011D92B9
:1008E0008A95E9F74AE050E068E971E0CE010196A7
:1008F0000E94DD0C882309F489C18091CF03909177
:10090000D003892B39F488E690E00E94C40C109241
:10091000D1037AC110923305109232050E94490921
:100920000E94B90D8BE0E7EDF1E08E010F5F1F4FE4
:10093000D80101900D928A95E1F7C8010E94760DC9
:1009400063EE71E08DED93E00E94191A63EE71E0A1
:1009500080E090E00E94191A6DEC72E00E94191A72
:100960006DEC72E080E090E00E94191A63EA71E099
:100970000E94191A63EA71E080E090E00E94191A5F
:100980000E94FB19909333058093320563EA71E06E
:1009900080E090E00E94191ABC0184E395E00E9477
:1009A0002A1763EA71E080E090E00E94191ABC0106
:1009B00088E495E00E942A1763EA71E080E090E005
:1009C0000E94191ABC0187E595E00E942A1763EA84
:1009D00071E080E090E00E94191ABC0186E695E083
:1009E0000E942A1763EA71E080E090E00E94191AE1
:1009F000BC0180E795E00E942A1763EA71E080E07D
:100A000090E00E94191ABC0187E795E00E942A171E
:100A100063EA71E080E090E00E94191A63EA71E0F5
:100A200080E090E00E94191ABC018EE795E00E94D8
:100A30002A1763EA71E080E090E00E94191A63EAE5
:100A400071E080E090E00E94191A63EA71E080E0B2
:100A500090E00E94191ABC0183E895E00E942A17D1
:100A600063EA71E080E090E00E94191A63EA71E0A5
:100A700080E090E00E94191A2091D1038091320504
:100A800090913305223009F042C0892B99F48FEB05
:100A900095E09F938F9388EA91E09F938F931F93A4
:100AA0000F930E945A170F900F900F900F900F9076
:100AB0000F9075C08FEB95E09F938F9383E895E03F
:100AC0009F938F938EE795E09F938F9387E795E0B1
:100AD0009F938F9380E795E09F938F9386E695E0B1
:100AE0009F938F9387E595E09F938F9388E495E09C
:100AF0009F938F9384E395E09F938F9380EB91E096
:100B00009F938F931F930F930E945A1743C0892B73
:100B100089F48FEB95E09F938F9386E995E09F93FF
:100B20008F9385EA91E09F938F931F930F930E9479
:100B30005A1730C08FEB95E09F938F9383E895E031
:100B40009F938F938EE795E09F938F9387E795E030
:100B50009F938F9380E795E09F938F9386E695E030
:100B60009F938F9387E595E09F938F9388E495E01B
:100B70009F938F9384E395E09F938F9386E995E00D
:100B80009F938F938DEA91E09F938F931F930F9381
:100B90000E945A170FB6F894DEBF0FBECDBF8091EA
:100BA00095058F93809194058F93809193058F93F2
:100BB000809192058F93809191058F9380919005FC
:100BC0008F938DEC91E09F938F937E01B9E7EB0EAD
:100BD000F11CFF92EF920E945A17B701C8010E94C0
:100BE00016171092330510923205C8010E94100B9F
:100BF0000FB6F894DEBF0FBECDBF882309F483CEB5
:100C000091E090935E0305C080E003C00E942C0E2B
:100C100074CEC957DF4F0FB6F894DEBF0FBECDBFFD
:100C2000DF91CF911F910F91FF90EF900895611583
:100C3000710579F0FB0101900020E9F73197AF01D0
:100C4000461B570BDC01ED91FC910280F381E02DF6
:100C5000099480E090E008950F931F93CF93DF9362
:100C6000EC010E9417068C0162EE71E0CE010E9439
:100C70001706800F911FDF91CF911F910F9108955B
:100C8000EF92FF920F931F93CF93DF93CDB7DEB711
:100C900064970FB6F894DEBF0FBECDBF65EE71E06E
:100CA00084EC95E00E942C0664EE71E08DED93E0FB
:100CB0000E942A1785E594E00E94DF02892B09F43F
:100CC00066C0F12CE12C10E085E594E00E94DF0283
:100CD000181619067CF585E594E00E94BD02082FE0
:100CE000833229F4F1100EC0EE24E3941EC0843246
:100CF00049F4E12FF0E0E555FA4F1082FF24F39418
:100D0000E12C13C0EE2089F0E091C405F091C505F7
:100D10000190F081E02D602F84EC95E00995E12FA2
:100D2000F0E0E555FA4F00831F5F81E090E00E94FC
:100D3000D40CCACF65EF71E084EC95E00E941706F1
:100D40006BEA75E084EC95E00E942C06FF20F9F038
:100D50008BEA95E00E94A50E8823C9F08FE00E94DF
:100D6000A4089F938F938FEF91E09F938F938E01B1
:100D70000F5F1F4F1F930F930E945A17C8010E94C5
:100D8000100B0F900F900F900F900F900F90649694
:100D90000FB6F894DEBF0FBECDBFDF91CF911F918C
:100DA0000F91FF90EF9008950E94EB0281110C9437
:100DB000400608951F920F920FB60F9211242F93A1
:100DC0003F934F935F936F937F938F939F93AF93D3
:100DD000BF93EF93FF9385E594E00E94F502FF91A6
:100DE000EF91BF91AF919F918F917F916F915F91A3
:100DF0004F913F912F910F900FBE0F901F9018951C
:100E00001F920F920FB60F9211242F938F939F93DF
:100E1000EF93FF93E0916504F09166048081E09187
:100E20006B04F0916C0482FD12C0908180916E047D
:100E30008F5F8F7720916F04821751F0E0916E04DD
:100E4000F0E0EB5AFB4F958F80936E0401C08081D8
:100E5000FF91EF919F918F912F910F900FBE0F9067
:100E60001F9018951F920F920FB60F9211242F9377
:100E70003F934F935F936F937F938F939F93AF9322
:100E8000BF93EF93FF93E091A703F091A803099517
:100E9000FF91EF91BF91AF919F918F917F916F9152
:100EA0005F914F913F912F910F900FBE0F901F9028
:100EB00018951F920F920FB60F9211248F939F9344
:100EC0008091AD039091AE03181619068CF48091B1
:100ED000AD039091AE0301979093AE038093AD0361
:100EE000A8959F918F910F900FBE0F901F9018950E
:100EF00014BE8091600088618093600088E08093D8
:100F00006000FFCF1F920F920FB60F9211242F9304
:100F10003F934F935F936F937F938F939F93AF9381
:100F2000BF93EF93FF93E091AB03F091AC03309745
:100F300009F451C0968DA685B785858591FF04C0BB
:100F40009C91892329F447C09C91892309F043C0CF
:100F5000A389B4899C918589809589238C938689FE
:100F600097890197F1F7608D718DA685B7855585B5
:100F700038E020E0CB010197F1F7822F90E09595C2
:100F80008795282F4C91452309F02068315091F71F
:100F9000868D81FD20958091AA0390E001968F7344
:100FA00099273091A903381749F0A091AA03B0E01E
:100FB000AD59BC4F2C938093AA0303C0868D8160EA
:100FC000868F828D938D0197F1F7A389B4899C91C7
:100FD0008589892B8C93FF91EF91BF91AF919F9160
:100FE0008F917F916F915F914F913F912F910F90D2
:100FF0000FBE0F901F901895833081F028F4813038
:1010000099F08230A1F008958730A9F08830B9F0C6
:101010008430D1F4809180008F7D03C08091800066
:101020008F7780938000089584B58F7702C084B550
:101030008F7D84BD08958091B0008F7703C080912B
:10104000B0008F7D8093B00008958E3008F08E50F0
:101050008770806480937C0080917A0080648093A4
:101060007A0080917A0086FDFCCF809178002091F3
:10107000790090E0922B08953FB7F8948091B403E3
:101080009091B503A091B603B091B70326B5A89B84
:1010900005C02F3F19F00196A11DB11D3FBFBA2F0A
:1010A000A92F982F8827820F911DA11DB11DBC016A
:1010B000CD0142E0660F771F881F991F4A95D1F72F
:1010C00008958F929F92AF92BF920F931F93CF93E9
:1010D000DF93CDB7DEB7A1970FB6F894DEBF0FBE92
:1010E000CDBF19A2423008F44AE08E010F5D1F4FB8
:1010F000842E912CA12CB12CA50194010E942A15BB
:10110000E62FB901CA0101501109EA3014F4E05D7B
:1011100001C0E95CD801EC93232B242B252B61F72C
:10112000B80184EC95E00E941706A1960FB6F894DA
:10113000DEBF0FBECDBFDF91CF911F910F91BF904A
:10114000AF909F908F900895CF93DF93282F30E03A
:10115000F901ED51FE4F8491F901ED59FB4FD49106
:10116000F901E15BFB4FC491CC2391F081110E9406
:10117000FC07EC2FF0E0EE0FFF1FEB5BFB4FA591A0
:10118000B491EC91ED2381E090E021F480E002C085
:1011900080E090E0DF91CF9108951F93CF93DF938C
:1011A000282F30E0F901ED51FE4F8491F901ED59FE
:1011B000FB4FD491F901E15BFB4FC491CC23C9F003
:1011C000162F81110E94FC07EC2FF0E0EE0FFF1F9D
:1011D000E55CFB4FA591B4918FB7F894111105C050
:1011E0009C91ED2FE095E92302C0EC91ED2BEC935F
:1011F0008FBFDF91CF911F9108950F931F93CF93CE
:10120000DF93CDB7DEB72F970FB6F894DEBF0FBED2
:10121000CDBF1F9281E08F9383EA92E09F938F93DB
:101220008E010F5F1F4F1F930F930E945A17C80123
:101230000E94760D1092A90560E089E00E94CD0819
:101240000F900F900F900F900F900F902F960FB65A
:10125000F894DEBF0FBECDBFDF91CF911F910F91EC
:1012600008958DE092E00E94C40C60E089E00E9445
:10127000CD0860E084E00E94CD0884E690E00E9402
:10128000D40C60E086E00E94CD0884E690E00C94E7
:10129000D40CCF92DF92EF92FF920F931F93CF93D4
:1012A000DF93CDB7DEB7E9970FB6F894DEBF0FBE78
:1012B000CDBF8091CC03813009F03FC087E0EEE8DC
:1012C000F2E0DE01D39601900D928A95E1F7CE010E
:1012D000C3960E94760D63EE71E08DED93E00E945F
:1012E000191A63EE71E080E090E00E94191ABC01C7
:1012F000CE0101960E942A1763EA71E0CE010196A1
:101300000E94191A63EA71E080E090E00E94191AC5
:1013100063EA71E080E090E00E94191A0E94FB19D4
:1013200090939105809390051092930510929205E9
:101330001092950510929405ADC0823009F0AAC0B4
:1013400084E10E942508BC01990F880B990B0E942B
:10135000181623E333E343E55BE30E94A41620E081
:1013600030E04AE754E40E94A4160E94E71580E0AA
:1013700090E00E94161620E633EB43EA5EE30E94FB
:1013800075150E94E7156B017C01709395056093BC
:10139000940562EB72E084EC95E00E941706B601BA
:1013A00080E090E04AE00E94610881E10E94250807
:1013B000BC01990F880B990B0E94181623E333E3A5
:1013C00043E55BE30E94A41620E030E04AE754E4E2
:1013D0000E94A4160E94E71580E090E00E94161675
:1013E00020E633EB43EA5EE30E9475150E94E715A1
:1013F0008B010456110910939105009390056CEB35
:1014000072E084EC95E00E941706B80180E090E05D
:101410004AE00E94610880E10E942508BC01990F02
:10142000880B990B0E94181623E333E343E55BE333
:101430000E94A41620E030E04AE754E40E94A4167B
:101440000E94E71580E090E00E94161623ED37EA2F
:101450004DEB5CE30E9475150E94E7156B017C0162
:10146000709393056093920566EC72E084EC95E0CE
:101470000E941706B60180E090E04AE00E946108F1
:1014800062EE71E084EC95E00E9417068CE092E039
:101490000E94C40C2091D4033091D503211531054D
:1014A00041F081E04091900550919105421753071A
:1014B00008F080E02091D6033091D7032115310543
:1014C00041F040919205509193054217530708F45B
:1014D00081E02091D8033091D9032115310539F0ED
:1014E00040919405509195054217530710F08130B3
:1014F00061F41092DC0387EF91E00E94C40C85E058
:101500008093D1030E94310906C08091D1038530B8
:1015100011F41092D103E9960FB6F894DEBF0FBE16
:10152000CDBFDF91CF911F910F91FF90EF90DF9092
:10153000CF900895CF93DF9390E0FC01ED59FB4FDE
:101540002491FC01E15BFB4F8491882361F190E0E1
:10155000880F991FFC01E752FE4FC591D491FC0101
:10156000E55CFB4FA591B491611109C09FB7F89458
:101570008881209582238883EC912E230BC06230D2
:1015800061F49FB7F8943881822F809583238883F4
:10159000EC912E2B2C939FBF06C08FB7F894E88157
:1015A0002E2B28838FBFDF91CF9108958F929F922A
:1015B000AF92BF92CF92DF92EF92FF926B017C01CC
:1015C0000E943C084B015C01C114D104E104F10408
:1015D000F1F00E943C08DC01CB0188199909AA09A5
:1015E000BB09883E9340A105B10570F321E0C21A02
:1015F000D108E108F10888EE880E83E0981EA11C4E
:10160000B11CC114D104E104F10419F7DDCFFF903E
:10161000EF90DF90CF90BF90AF909F908F90089504
:10162000AF92BF92DF92EF92FF920F931F93CF93EF
:10163000DF93CDB7DEB7A8970FB6F894DEBF0FBE25
:10164000CDBFD090A905DD2009F4E7C08C01FC01D5
:1016500001900020E9F73197E81BF90BFF93EF9316
:101660008FEC92E09F938F937E0185E1E80EF11C51
:10167000FF92EF920E945A17C7010E94760DC8018F
:101680000E94760D6DED72E08DED93E00E944017A3
:101690000F900F900F900F900F900F90892B09F4DF
:1016A000B5C085E992E00E94C40C64E670E080E079
:1016B00090E00E94D60A63EE71E08DED93E00E9407
:1016C000191A63EE71E080E090E00E94191A63EE4F
:1016D00071E080E090E00E94191A8C01BC01DE01EB
:1016E00011967D01CD010E942A178981833209F06C
:1016F00080C0F70101900020E9F73197EE19FF094A
:10170000EC0FFD1F8081843209F073C065EE72E03A
:10171000C7010E94191AFF24F394892B09F4F12CB4
:1017200065EE72E080E090E00E94191A892B09F4BE
:1017300060C0FF2009F45DC08AE892E00E94A30C1B
:10174000B80184EC95E00E942C06F801019000207D
:10175000E9F7E01BE2500F5F1F4FAA24A394B12CBE
:10176000EE2EF12CAE14BF044CF5F80180818352AB
:101770008230F0F089E292E00E94A30CE091C4056F
:10178000F091C5050190F081E02DD8016C9184ECB9
:1017900095E0099562EE71E084EC95E00E941706F1
:1017A000F501E854FC4F1082D8018C913197808369
:1017B000BFEFAB1ABB0A0F5F1F4FD4CF87E192E098
:1017C0000E94A30C68EB73E084EC95E00E942C0669
:1017D00088EB93E00E94A50E882379F086E792E0DB
:1017E0000E94C40C68EB73E084EC95E00E942C0628
:1017F00004C08BE592E00E94C40C8091D10382303A
:1018000061F48DE392E00E94C40C07C01092A90518
:101810008FE992E00E94C40CD12C8D2DA8960FB6B2
:10182000F894DEBF0FBECDBFDF91CF911F910F9116
:10183000FF90EF90DF90BF90AF9008951F920F92AE
:101840000FB60F9211242F933F938F939F93AF93D3
:10185000BF938091AF039091B003A091B103B09179
:10186000B2033091B30323E0230F2D3720F4019608
:10187000A11DB11D05C026E8230F0296A11DB11DB3
:101880002093B3038093AF039093B003A093B1036D
:10189000B093B2038091B4039091B503A091B603C5
:1018A000B091B7030196A11DB11D8093B40390932D
:1018B000B503A093B603B093B703BF91AF919F91C7
:1018C0008F913F912F910F900FBE0F901F90189501
:1018D0000F931F93CF93DF93EC018B018536910516
:1018E00050F567EE72E0C8010E942117892B11F4B0
:1018F00061E008C06AEE72E0C8010E942117892BDE
:1019000029F460E08C2F0E94CD0817C06EEE72E0C3
:10191000C8010E942117892B11F461E008C062EF11
:1019200072E0C8010E942117892B39F460E08C2FE6
:101930000E949A0A02C080E001C081E0DF91CF914D
:101940001F910F9108950F931F93CF93DF938C01F5
:10195000C0E0D0E0F801EC0FFD1F6491662371F048
:10196000E091C405F091C5050190F081E02D84EC73
:1019700095E00995892B11F02196ECCFCE01DF91EE
:10198000CF911F910F910895CF93DF930E94A30CE5
:10199000EC0162EE71E084EC95E00E9417068C0F7A
:1019A0009D1FDF91CF910895A895BC01990F880BD9
:1019B000990B0E94D60AA8950895EF92FF920F9373
:1019C0001F93CF93DF93EC017B018A0185E594E0BF
:1019D0000E94DF02892B29F085E594E00E94BD0278
:1019E000F5CF88E7EDEDF3E0DF011D928A95E9F789
:1019F0008DE094E00E94C40C80E094E00E94A30C6F
:101A0000BE0184EC95E00E942C06BE0185E594E0C1
:101A10000E942C0685E594E00E945D03C8010E94A7
:101A2000D40CC5E6D0E085E594E00E94DF02892B66
:101A300001F58EEF93E00E94A30C84E690E00E94F3
:101A4000D40C219781F78AEE93E00E94C40C809118
:101A5000DC038F5F8093DC038B30E8F18CEA93E04A
:101A60000E94C40C60E177E280E090E00E94D60A18
:101A700032C01092DC030DED13E0E801CD5DD340E0
:101A800085E594E00E94DF021816190664F485E5E6
:101A900094E00E94BD02F80181938F0185E090E0FF
:101AA0000E94D40CEACFC352DC4F18826DED73E074
:101AB00084EC95E00E942C068DE793E00E94C40C14
:101AC000E114F10451F0B7018DED93E00E9440174D
:101AD00021E0892B19F420E001C021E0822FDF9161
:101AE000CF911F910F91FF90EF90089540E050E04B
:101AF00060E070E00C94DD0CCF93DF93CDB7DEB7E0
:101B000028970FB6F894DEBF0FBECDBF88E0E5EF93
:101B1000F2E0DE01119601900D928A95E1F7CE0177
:101B200001960E94760D63EE71E08DED93E00E94C8
:101B3000191A63EE71E080E090E00E94191A4FE0FC
:101B400050E0BC0186E995E00E94311786E793E0FA
:101B50000E94A30C66E975E084EC95E00E942C06D7
:101B600028960FB6F894DEBF0FBECDBFDF91CF91A0
:101B70000895CF93DF93CDB7DEB72A970FB6F894C9
:101B8000DEBF0FBECDBF87E0EAE6F1E0DE011196D1
:101B900001900D928A95E1F7188619861A8640E021
:101BA00050E062EE72E0CE0101960E94DD0C8823C7
:101BB00089F06DEC72E08DED93E00E94191A63EAF2
:101BC00071E080E090E00E94191ABC018FEB95E073
:101BD0000E942A172A960FB6F894DEBF0FBECDBF1B
:101BE000DF91CF9108951F93CF93DF93CDB7DEB7E9
:101BF0002A970FB6F894DEBF0FBECDBF1091A60591
:101C00001123F9F08AE0EDEFF2E0DE011196019088
:101C10000D928A95E1F7CE0101960E94760D62EE53
:101C200072E08DED93E00E944017892B29F084E645
:101C300093E00E94C40C05C080E593E00E94C40CB0
:101C400010E0812F2A960FB6F894DEBF0FBECDBFED
:101C5000DF91CF911F910895EF92FF921F93CF9341
:101C6000DF93CDB7DEB7C456D1090FB6F894DEBF07
:101C70000FBECDBF1092A9050E94F30D182F882327
:101C800009F455C087E093E09F938F938CE093E035
:101C90009F938F9389E193E09F938F939E012F5F92
:101CA0003F4F79013F932F930E945A17C7010E941B
:101CB000760D80ED97E00E94D40C63EE71E08DED1F
:101CC00093E00E94191A63EE71E080E090E00E94B8
:101CD000191A7C0162EE72E00E9440170FB6F89468
:101CE000DEBF0FBECDBF892B39F465E373E0C701BA
:101CF0000E944017892B51F01092E30583E493E092
:101D00000E94C40C81E08093A90511C083E393E095
:101D10000E94C40C8091E3058F5F8093E3058330BC
:101D200029F48CEF92E00E94C40CFFCF10E0812FC9
:101D3000CC59DF4F0FB6F894DEBF0FBECDBFDF9199
:101D4000CF911F91FF90EF900895EF92FF920F9324
:101D50001F93CF93DF93CDB7DEB7CE5CD1090FB61B
:101D6000F894DEBF0FBECDBF8C018CED92E00E94D7
:101D7000A30CB80184EC95E00E94170665EE72E0B2
:101D8000C8010E94191A009729F0BC01CE010196E2
:101D90000E942A1765EE72E080E090E00E94191A16
:101DA000009729F0BC01CE0145960E942A1782EDCA
:101DB00092E00E94A30CBE016F5F7F4F84EC95E020
:101DC0000E94170687EC92E00E94A30CBE016B5E96
:101DD0007F4F84EC95E00E942C066BE373E0CE010C
:101DE00001960E942117892B31F4BE016B5E7F4F53
:101DF0008FE090E00DC06FE373E0CE0101960E948A
:101E00002117892B41F4BE016B5E7F4F8BE090E080
:101E10000E94680CDDC064E473E0CE0101960E946C
:101E20002117892B31F4BE016B5E7F4F8CE090E06F
:101E3000EFCF69E473E0CE0101960E942117892B50
:101E400009F0BAC08DEB92E00E94A30CBE016B5E5C
:101E50007F4F84EC95E00E942C068E010E5A1F4F96
:101E60008CE3F80111928A95E9F76DE473E0CE01F5
:101E700045960E94191AF12C24E1E22E009781F078
:101E8000BC01C801EF9C800D911D11240E942A17EE
:101E90006DE473E080E090E00E94191AF394EECFB5
:101EA0007801FCE3EF0EF11C81EB92E00E94A30CA1
:101EB000B80184EC95E00E942C06B801CE0182574F
:101EC0009F4F0E942A176FE473E0CE0182579F4F05
:101ED0000E94191A009709F45FC0BC01CE0180541A
:101EE0009F4F0E942A176FE473E080E090E00E9409
:101EF000191ABC01CE0186539F4F0E942A1761E533
:101F000073E0CE0180549F4F0E942117892B61F40A
:101F1000CE0186539F4F0E94FB1921E0892B09F4C3
:101F200020E02093CD0338C066E573E0CE018054F5
:101F30009F4F0E942117892B51F4CE0186539F4F4A
:101F40000E94FB199093D0038093CF0325C06BE5CB
:101F500073E0CE0180549F4F0E942117892B41F4DA
:101F6000CE0186539F4F0E94FB198093D10314C06A
:101F700062E573E0CE0180549F4F0E942117892BA8
:101F800059F4CE0186539F4F0E94FB1921E0892B03
:101F900009F420E02093D3030C5E1F4F0E151F059C
:101FA00009F082CF40E150E060E070E08CEC93E01B
:101FB0000E945D1A81E00CC08BEE92E00E94A30C9F
:101FC000BE016F5F7F4F84EC95E00E942C0680E09D
:101FD000C253DF4F0FB6F894DEBF0FBECDBFDF9107
:101FE000CF911F910F91FF90EF900895CF93DF93C2
:101FF000CDB7DEB7CB5AD1090FB6F894DEBF0FBE0E
:10200000CDBF789484B5826084BD84B5816084BD81
:1020100085B5826085BD85B5816085BD80916E0086
:10202000816080936E0010928100809181008260B7
:1020300080938100809181008160809381008091F4
:1020400080008160809380008091B10084608093E3
:10205000B1008091B00081608093B00080917A00DF
:10206000846080937A0080917A00826080937A0005
:1020700080917A00816080937A0080917A008068F4
:1020800080937A001092C10014BE0FB6F894A89500
:1020900080916000886180936000109260000FBEA4
:1020A000F89414BE8091600088618093600081E69E
:1020B0008093600078941092800080E1809381008A
:1020C00084E08093A5038FB78093A603F89482E100
:1020D0009AE79093A4038093A3039093870080933F
:1020E00086008091A6038FBF80918100887F8093B6
:1020F0008100909181008091A503982B909381009D
:1021000028E632E03093A8032093A70391E0909350
:102110006F0090918100892B809381007E0127E9D7
:10212000E20EF11C8E010F5F1F4F44EEC42E41E002
:10213000D42E5DEB652E712C8FB7F8942090AF03F1
:102140003090B0034090B1035090B2038FBF209203
:1021500088053092890540928A0550928B058091BE
:10216000D1038230C1F52091DA033091DB038091F5
:102170008C0590918D05A0918E05B0918F0552012F
:102180004101881A990AAA0ABB0AA8EEB3E00E9484
:102190004C1586169706A806B906C8F020928C053D
:1021A00030928D0540928E0550928F058091C30527
:1021B0008F5F8093C30590E02091CF033091D003CF
:1021C0008217930720F486E092E00E94100B80E0D3
:1021D0000E94410453C3813041F40E944104809124
:1021E000A905882309F44AC3EBC28111ECC260E05F
:1021F00089E00E94CD0861E089E00E949A0A61E0CE
:1022000089E00E94CD0861E085E00E949A0A61E0C1
:1022100084E00E949A0A61E086E00E949A0A60E0E7
:1022200087E00E949A0A61E088E00E949A0A60E0D2
:102230008EE00E949A0A61E08FE00E949A0A61E0B3
:102240008CE00E949A0A61E08BE00E949A0A84E680
:1022500090E00E94D40C83ED90E00E94C40C109298
:10226000DF051092DE051092DD051092DC0510925C
:10227000DB051092DA058DE991E09093E1058093FA
:10228000E0059091D005963108F055C07092DB05BD
:102290006092DA05ABE9B1E0B093DD05A093DC050F
:1022A0002CE231E03093DF052093DE0520916800B9
:1022B000983050F031E09E3008F430E081E001C009
:1022C000880F3A95EAF701C084E0822B809368007A
:1022D000983038F09E3040F0963148F020E030E001
:1022E00008C02DE630E005C02BE630E002C02CE649
:1022F00030E03093D8052093D705983030F481E052
:1023000001C0880F9A95EAF70EC0292F30E09E3061
:1023100018F42850310902C02E50310981E001C063
:10232000880F2A95EAF78093D9058091E00590916E
:10233000E1050197F1F78091DE059091DF05892B8A
:1023400021F18091AB039091AC03B5E0843C9B07F5
:10235000E1F0009711F00E9425048091E2058E7F44
:102360008093E2051092AA031092A90384EC95E0F1
:102370009093AC038093AB03E091D705F091D8051F
:1023800090818091D905892B8083E0916504F0913B
:10239000660482E08083E0916104F091620410821F
:1023A000E0916304F09164048FEC808310926D04DB
:1023B000E0916904F0916A0486E08083E09167040B
:1023C000F0916804808180618083E0916704F091DE
:1023D0006804808188608083E0916704F0916804DC
:1023E000808180688083E0916704F0916804808137
:1023F0008F7D808364E670E080E090E00E94D60AE2
:102400008FEE90E00E94A30C89EE90E00E94A30C56
:1024100080EE90E00E94C40C60E089E00E94CD084C
:1024200034E0B32EBA94BB2089F061E089E00E94C9
:10243000CD0888EC90E00E94D40C60E089E00E9416
:10244000CD0888EC90E00E94D40CECCF40E150E045
:1024500060E070E08CEC93E00E944D1A8091CE0316
:102460008931A1F187EA90E00E94C40C82E0809358
:10247000CC031092CD0399E19093CE0325E030E098
:102480003093D0032093CF031092D1038093D203D3
:102490001092D3038AE090E09093DB038093DA03F9
:1024A000A2E4BEE0B093D503A093D4031092D70367
:1024B0001092D6031092D9031092D80340E150E055
:1024C00060E070E08CEC93E00E945D1A80E990E09F
:1024D0000E94C40C0E94310988EE93E00E94D40C43
:1024E00061E084E00E94CD0825E0B22E87E00E94E2
:1024F000A408A82EB1E08B1305C085E890E00E94E7
:10250000C40C1AC08CE790E00E94C40C61E085E026
:102510000E94CD088CED95E00E94D40C60E085E02F
:102520000E94CD088CED95E00E94D40CBA94B110B5
:10253000DDCFAA2009F496C18DE0E4E7F2E0D701EF
:1025400001900D928A95E1F740E050E062EE72E072
:10255000C7010E94DD0C882309F484C18CED95E04D
:102560000E94D40C61E086E00E94CD0888EE93E0E2
:102570000E94D40C8DE0E1E8F2E0D80101900D92C8
:102580008A95E1F7C8010E94760D1092C3050E945A
:102590007C0D8CE692E00E94760D87E0EEE8F2E09A
:1025A000D80101900D928A95E1F7C8010E94760D3D
:1025B0000E9449098091D103853009F45FC10E94CE
:1025C0007C0D8091D2038150823008F0E3C01092DC
:1025D000A80540E050E062EE72E088E092E00E94E0
:1025E000DD0C8823B1F081E08093A80584E690E0BB
:1025F0000E94D40C85E0E5E9F2E0D80101900D924B
:102600008A95E1F7C8010E94760D84E690E00E9469
:10261000D40C8091A805811103C082E191E036C0FD
:102620000E94B90D8091A805882371F11092A6052A
:102630008AE0A82EB12C99E0592EEAE9F2E0D801FF
:10264000852D01900D928A95E1F7C8010E94760DC3
:102650006BE072E08DED93E00E944017892B41F40E
:102660006EE072E08DED93E00E944017892B21F01F
:1026700081E08093A6050CC088EE93E00E94D40C04
:1026800021E0A21AB108C9F683E091E00E94C40CCF
:102690000E94F30D8823C1F1DF92CF92DF92CF9297
:1026A000A1E1B2E0BF93AF93AFE1B2E0BF93AF93CC
:1026B0001F930F930E945A1748EE53E060E070E0BA
:1026C000C8010E94DD0C88EE93E00E94D40C48EE15
:1026D00053E060E070E086E392E00E94DD0C88EE5B
:1026E00093E00E94D40C44E650E060E070E08FE399
:1026F00092E00E94DD0C88EE93E00E94D40C0FB6AD
:10270000F894DEBF0FBECDBF0E942C0E8091D10386
:10271000813011F422E001C021E066E975E0C701D3
:10272000C555DF4F2883CB5AD0400E942A171F92ED
:10273000C555DF4F2881CB5AD0402F93FF92EF929F
:10274000A8E4B2E0BF93AF931F930F930E945A1770
:102750000FB6F894DEBF0FBECDBF8091A9058823C8
:1027600009F493C0C8010E94100B882309F48DC09E
:102770008AEF90E00E94A30C6DED73E084EC95E08D
:102780000E942C068091D2038093D10361E089E0FE
:102790000E94CD088091D203823041F49091A90526
:1027A000992309F46BC08093D10368C0813009F08C
:1027B00065C09091A905992309F460C08093D10365
:1027C0000E94FD085BC0853009F043C00E944909A2
:1027D0008091D103853009F051C081EB91E00E94D6
:1027E000C40CA4E0B0E0B093AE03A093AD0383B7F4
:1027F000817F846083BF80916400816080936400E6
:102800008091CD0381110E9431098091AD03909197
:10281000AE03181619067CF48FEA91E00E94A30C0F
:1028200083B7816083BF889583B78E7F83BF83B76B
:102830008E7F83BFEACF8EEA91E00E94C40C89E8C4
:1028400091E00E94C40C80916400807180936400C8
:1028500015C0843099F46EE472E084EC95E00E9437
:102860002C06FFCF8EE591E00E94C40C82E291E03D
:102870000E94C40C88E893E10E94D40C81E090E0AF
:102880000E94D40C0E94D40657CC1092D10382CF60
:102890008AE891E09093C5058093C40584EC95E0A7
:1028A0000C942504109258041092570488EE93E07B
:1028B000A0E0B0E08093590490935A04A0935B0485
:1028C000B0935C0428E731E030935604209355041C
:1028D00025EC30E0309362042093610424EC30E076
:1028E000309364042093630420EC30E0309366045A
:1028F0002093650421EC30E0309368042093670452
:1029000022EC30E030936A042093690426EC30E036
:1029100030936C0420936B0410926E0410926F0439
:1029200010927004109271041092C7051092C6059F
:102930008093C8059093C905A093CA05B093CB05B1
:102940008AE891E09093C5058093C4051092DB0559
:102950001092DA051092DD051092DC051092DF0569
:102960001092DE051092E1051092E0056091E205FB
:102970006E7F6D7F6093E2056695617081E06827E8
:1029800082E10E94CD0861E082E10E949A0AE5E7B7
:10299000F4E0E491E093D405E1E6F4E0E491F0E0C2
:1029A000EE0FFF1FE55CFB4F859194919093D60548
:1029B0008093D50560E083E10E949A0A8091E20548
:1029C00081FD04C061E083E10E94CD0883E1809332
:1029D000D005E6E7F4E0E491E093D105E2E6F4E027
:1029E000E491F0E0EE0FFF1FEB5BFB4F85919491BC
:1029F0009093D3058093D20586E5E4E1F1E0A2E36C
:102A0000B5E001900D928A95E1F710928805109239
:102A1000890510928A0510928B0510928C051092F0
:102A20008D0510928E0510928F05089597FB072E45
:102A300016F4009407D077FD09D00E945B1507FCBF
:102A400005D03EF4909581959F4F089570956195BE
:102A50007F4F0895A1E21A2EAA1BBB1BFD010DC0DA
:102A6000AA1FBB1FEE1FFF1FA217B307E407F5073E
:102A700020F0A21BB30BE40BF50B661F771F881F1A
:102A8000991F1A9469F760957095809590959B01B0
:102A9000AC01BD01CF010895A29FB001B39FC00159
:102AA000A39F700D811D1124911DB29F700D811D7A
:102AB0001124911D0895AA1BBB1B51E107C0AA1F39
:102AC000BB1FA617B70710F0A61BB70B881F991FCF
:102AD0005A95A9F780959095BC01CD010895EE0F08
:102AE000FF1F0590F491E02D09940E9489150C9424
:102AF0006A160E94631658F00E945C1640F029F492
:102B00005F3F29F00C94531651110C949E160C94AF
:102B100059160E947B1668F39923B1F3552391F35C
:102B2000951B550BBB27AA2762177307840738F03C
:102B30009F5F5F4F220F331F441FAA1FA9F335D099
:102B40000E2E3AF0E0E832D091505040E695001C4D
:102B5000CAF72BD0FE2F29D0660F771F881FBB1F07
:102B6000261737074807AB07B0E809F0BB0B802DE5
:102B7000BF01FF2793585F4F3AF09E3F510578F011
:102B80000C9453160C949E165F3FE4F3983ED4F3D6
:102B9000869577956795B795F7959F5FC9F7880FE5
:102BA000911D9695879597F90895E1E0660F771F37
:102BB000881FBB1F621773078407BA0720F0621BC8
:102BC000730B840BBA0BEE1F88F7E09508950E94F3
:102BD000831688F09F5798F0B92F9927B751B0F016
:102BE000E1F0660F771F881F991F1AF0BA95C9F791
:102BF00014C0B13091F00E949D16B1E008950C947C
:102C00009D16672F782F8827B85F39F0B93FCCF32E
:102C1000869577956795B395D9F73EF4909580950D
:102C2000709561957F4F8F4F9F4F0895E89409C02D
:102C300097FB3EF490958095709561957F4F8F4FEF
:102C40009F4F9923A9F0F92F96E9BB279395F69505
:102C5000879577956795B795F111F8CFFAF4BB0F83
:102C600011F460FF1BC06F5F7F4F8F4F9F4F16C0E7
:102C7000882311F096E911C0772321F09EE8872F71
:102C8000762F05C0662371F096E8862F70E060E02D
:102C90002AF09A95660F771F881FDAF7880F9695A6
:102CA000879597F9089597F99F6780E870E060E04D
:102CB00008959FEF80EC089500240A9416161706D5
:102CC00018060906089500240A941216130614061D
:102CD00005060895092E0394000C11F4882352F080
:102CE000BB0F40F4BF2B11F460FF04C06F5F7F4F38
:102CF0008F4F9F4F089557FD9058440F551F59F01F
:102D00005F3F71F04795880F97FB991F61F09F3FD8
:102D100079F087950895121613061406551FF2CF01
:102D20004695F1DF08C0161617061806991FF1CF51
:102D300086957105610508940895E894BB27662778
:102D40007727CB0197F908950E94B7160C946A165D
:102D50000E945C1638F00E94631620F0952311F053
:102D60000C9453160C94591611240C949E160E9420
:102D70007B1670F3959FC1F3950F50E0551F629F2E
:102D8000F001729FBB27F00DB11D639FAA27F00DC4
:102D9000B11DAA1F649F6627B00DA11D661F829FEB
:102DA0002227B00DA11D621F739FB00DA11D621FD0
:102DB000839FA00D611D221F749F3327A00D611DED
:102DC000231F849F600D211D822F762F6A2F1124CF
:102DD0009F5750409AF0F1F088234AF0EE0FFF1F02
:102DE000BB1F661F771F881F91505040A9F79E3F59
:102DF000510580F00C9453160C949E165F3FE4F33B
:102E0000983ED4F3869577956795B795F795E795AE
:102E10009F5FC1F7FE2B880F911D9695879597F9B7
:102E2000089581E090E0F8940C94AC1AFB01DC0169
:102E30000D900020E9F7119701900D920020E1F725
:102E40000895FB01DC018D91019080190110D9F3E7
:102E5000990B0895FB01DC0101900D920020E1F730
:102E60000895FB01DC014150504048F001900D9263
:102E70000020C9F701C01D9241505040E0F708956D
:102E8000FB0151915523A9F0BF01DC014D9145177C
:102E90004111E1F759F4CD010190002049F04D9125
:102EA00040154111C9F3FB014111EFCF81E090E0E2
:102EB00001970895AEE0B0E0E0E6F7E10C94831AE4
:102EC0000D891E8986E08C831A8309838FEF9FE723
:102ED0009E838D83AE01475E5F4F6F89788DCE01F3
:102EE00001960E947D172F813885F801E20FF31FAC
:102EF00010822E96E4E00C949F1AACE0B0E0E3E878
:102F0000F7E10C94751A7C016B018A01FC011782B0
:102F10001682838181FFBDC1CE0101964C01F7016C
:102F20009381F60193FD859193FF81916F01882331
:102F300009F4ABC1853239F493FD859193FF8191FA
:102F40006F01853229F4B70190E00E946519E7CF3F
:102F5000512C312C20E02032A0F48B3269F030F477
:102F6000803259F0833269F420612CC08D3239F0FF
:102F7000803339F4216026C02260246023C0286099
:102F800021C027FD27C030ED380F3A3078F426FFF6
:102F900006C0FAE05F9E300D1124532E13C08AE064
:102FA000389E300D1124332E20620CC08E3221F455
:102FB00026FD6BC1206406C08C3611F4206802C067
:102FC000883641F4F60193FD859193FF81916F015D
:102FD0008111C1CF982F9F7D9554933028F40C5FB9
:102FE0001F4FFFE3F9830DC0833631F0833771F053
:102FF000833509F05BC022C0F801808189830E5FB0
:103000001F4F44244394512C540115C03801F2E061
:103010006F0E711CF801A080B18026FF03C0652DE2
:1030200070E002C06FEF7FEFC5012C870E945A1934
:103030002C0183012C852F77222E17C03801F2E056
:103040006F0E711CF801A080B18026FF03C0652DB2
:1030500070E002C06FEF7FEFC5012C870E944F190F
:103060002C012C852068222E830123FC1BC0832D7C
:1030700090E048165906B0F4B70180E290E00E9453
:1030800065193A94F4CFF50127FC859127FE8191CB
:103090005F01B70190E00E94651931103A94F1E0A8
:1030A0004F1A51084114510471F7E5C0843611F0EC
:1030B000893639F5F80127FF07C060817181828167
:1030C00093810C5F1F4F08C060817181072E000C37
:1030D000880B990B0E5F1F4F2F76722E97FF09C03A
:1030E00090958095709561957F4F8F4F9F4F206889
:1030F000722E2AE030E0A4010E949D19A82EA81883
:1031000044C0853729F42F7EB22E2AE030E025C056
:10311000F22FF97FBF2E8F36C1F018F4883579F081
:10312000B4C0803719F0883721F0AFC02F2F20614D
:10313000B22EB4FE0DC08B2D8460B82E09C024FFC2
:103140000AC09F2F9660B92E06C028E030E005C067
:1031500020E130E002C020E132E0F801B7FE07C014
:1031600060817181828193810C5F1F4F06C06081F5
:10317000718180E090E00E5F1F4FA4010E949D19B5
:10318000A82EA818FB2DFF777F2E76FE0BC0372DBB
:103190003E7FA51450F474FE0AC072FC08C0372D9F
:1031A0003E7E05C0BA2C372D03C0BA2C01C0B52C09
:1031B00034FF0DC0FE01EA0DF11D8081803311F452
:1031C000397E09C032FF06C0B394B39404C0832F84
:1031D000867809F0B39433FD13C030FF06C05A2C33
:1031E000B31418F4530C5B18B32CB31468F4B70180
:1031F00080E290E03C870E946519B3943C85F5CF4E
:10320000B31410F43B1801C0312C34FF12C0B701C5
:1032100080E390E03C870E9465193C8532FF17C02F
:1032200031FD03C088E790E002C088E590E0B70177
:103230000CC0832F867859F031FF02C08BE201C0A9
:1032400080E237FD8DE2B70190E00E946519A51478
:1032500038F4B70180E390E00E9465195A94F7CFE3
:10326000AA94F401EA0DF11D8081B70190E00E945B
:103270006519A110F5CF332009F451CEB70180E2D2
:1032800090E00E9465193A94F6CFF7018681978104
:1032900002C08FEF9FEF2C96E2E10C94911AFC0193
:1032A0000590615070400110D8F7809590958E0F71
:1032B0009F1F0895FC016150704001900110D8F7E4
:1032C000809590958E0F9F1F08950F931F93CF9316
:1032D000DF93FB01238121FD03C08FEF9FEF28C007
:1032E00022FF16C04681578124813581421753073A
:1032F00044F4A081B1819D012F5F3F4F3183208332
:103300008C93268137812F5F3F4F3783268310C0F0
:10331000EB01092F182F0084F185E02D0995892BE9
:10332000E1F68E819F8101969F838E83812F902F5E
:10333000DF91CF911F910F910895FA01AA272830AC
:1033400051F1203181F1E8946F936E7F6E5F7F4F72
:103350008F4F9F4FAF4FB1E03ED0B4E03CD0670FEE
:10336000781F891F9A1FA11D680F791F8A1F911D41
:10337000A11D6A0F711D811D911DA11D20D009F491
:1033800068943F912AE0269F11243019305D3193D3
:10339000DEF6CF010895462F4770405D4193B3E0BC
:1033A0000FD0C9F7F6CF462F4F70405D4A3318F063
:1033B000495D31FD4052419302D0A9F7EACFB4E014
:1033C000A6959795879577956795BA95C9F70097CC
:1033D0006105710508959B01AC010A2E069457956D
:1033E000479537952795BA95C9F7620F731F841FC4
:1033F000951FA01D0895FC0188279927E894219125
:103400002032E9F3293010F02E30C8F32B3241F08E
:103410002D3239F4689404C00E94451A820F911D20
:10342000219120532A30C0F31EF4909581959F4F2F
:10343000089544EE55E00E941E1A0895FA01A191E4
:10344000B081009719F41097E1F0CD01DC01CD01B6
:103450000D90002011F4C00113C0FB012191222323
:1034600019F02015D9F7F3CFFB012191201519F49C
:103470001E92119606C02223C1F70D900020A1F7DD
:10348000D001FA01A193B08308957AE0979F902D1F
:10349000879F802D910D11240895DC01CB01FC0143
:1034A000F999FECF06C0F2BDE1BDF89A319600B49D
:1034B0000D9241505040B8F70895DC01CB0103C094
:1034C0002D910E94681A41505040D0F70895262F40
:1034D000F999FECF1FBA92BD81BD20BD0FB6F894F9
:1034E000FA9AF99A0FBE019608952F923F924F9241
:1034F0005F926F927F928F929F92AF92BF92CF9284
:10350000DF92EF92FF920F931F93CF93DF93CDB78C
:10351000DEB7CA1BDB0B0FB6F894DEBF0FBECDBF04
:1035200009942A88398848885F846E847D848C84D5
:103530009B84AA84B984C884DF80EE80FD800C81DE
:103540001B81AA81B981CE0FD11D0FB6F894DEBFC1
:103550000FBECDBFED01089512E0CDE3D2E004C06F
:10356000FE010E946F152196CE33D107C9F7F8945A
:02357000FFCF8B
:1035720041542B43495053544154555300000000C9
:103582000000000000000000000000000000000039
:103592000000000000000000000000000000000029
:1035A2000000000000000000000000000000000019
:1035B2000000000000000000000000000000000009
:1035C20000000000000000000000000000000000F9
:1035D2000000000000000000000041542B43535142
:1035E200000000000000000016038302AE025D032B
:1035F200DF02BD02D10200000000980383023C04F6
:103602009703EC0304047F03434F4E4E454354207B
:103612004F4B002C0025737C302C25730025737CC6
:10362200312C25732C25732C25732C25732C257393
:103632002C25732C25732C25732C2573007C257562
:103642002C25752C25750041542B43474E53494E6A
:1036520046000D0A0054454E454D4F5320434F53EB
:103662004153212100436F6D6D616E643A20006108
:10367200636B7C25690025004154002C35002C31F8
:10368200006D326D2E6F72616E67652E657300413B
:10369200542B435354543D222573222C222573224A
:1036A2002C222573220041542B43494943520041A5
:1036B200542B43494653520025737C2564005265BE
:1036C200736574204D6963726F202D20466972699B
:1036D2006E67207761746368646F670041542B439F
:1036E2004349440041542B43474E535057523D31B6
:1036F2000041542B434750535253543D30004154E0
:103702002B43424300415445300041542B43524520
:10371200473F0041542B434950434C4F53453D25AD
:103722006900565359535F35763A2000202D2056B2
:103732004241543A2000202D2056494E3A20004161
:10374200542B43495053454E443D25690053454E41
:1037520044204F4B007C004F4E004F4646004F55D1
:103762005400494E0041542B4347534E0041542BC1
:1037720043474154543F00343434340034352E37F7
:10378200362E33372E3231390041542B43495053B0
:10379200544152543D22544350222C222573222C50
:1037A2002225732200524541445900494F36004DAB
:1037B2004F5349004D49534F00434647003B003A9F
:0E37C2000064736C700067707369006F7000B4
:00000001FF
